{
  "contracts/facets/Test1Facet.sol": {
    "Test1Facet": {
      "abi": [
        {
          "anonymous": false,
          "inputs": [
            {
              "indexed": false,
              "internalType": "address",
              "name": "something",
              "type": "address"
            }
          ],
          "name": "TestEvent",
          "type": "event"
        },
        {
          "inputs": [
            {
              "internalType": "bytes4",
              "name": "_interfaceID",
              "type": "bytes4"
            }
          ],
          "name": "supportsInterface",
          "outputs": [
            {
              "internalType": "bool",
              "name": "",
              "type": "bool"
            }
          ],
          "stateMutability": "view",
          "type": "function"
        },
        {
          "inputs": [],
          "name": "test1Func1",
          "outputs": [],
          "stateMutability": "nonpayable",
          "type": "function"
        },
        {
          "inputs": [],
          "name": "test1Func10",
          "outputs": [],
          "stateMutability": "nonpayable",
          "type": "function"
        },
        {
          "inputs": [],
          "name": "test1Func11",
          "outputs": [],
          "stateMutability": "nonpayable",
          "type": "function"
        },
        {
          "inputs": [],
          "name": "test1Func12",
          "outputs": [],
          "stateMutability": "nonpayable",
          "type": "function"
        },
        {
          "inputs": [],
          "name": "test1Func13",
          "outputs": [],
          "stateMutability": "nonpayable",
          "type": "function"
        },
        {
          "inputs": [],
          "name": "test1Func14",
          "outputs": [],
          "stateMutability": "nonpayable",
          "type": "function"
        },
        {
          "inputs": [],
          "name": "test1Func15",
          "outputs": [],
          "stateMutability": "nonpayable",
          "type": "function"
        },
        {
          "inputs": [],
          "name": "test1Func16",
          "outputs": [],
          "stateMutability": "nonpayable",
          "type": "function"
        },
        {
          "inputs": [],
          "name": "test1Func17",
          "outputs": [],
          "stateMutability": "nonpayable",
          "type": "function"
        },
        {
          "inputs": [],
          "name": "test1Func18",
          "outputs": [],
          "stateMutability": "nonpayable",
          "type": "function"
        },
        {
          "inputs": [],
          "name": "test1Func19",
          "outputs": [],
          "stateMutability": "nonpayable",
          "type": "function"
        },
        {
          "inputs": [],
          "name": "test1Func2",
          "outputs": [
            {
              "internalType": "address",
              "name": "",
              "type": "address"
            }
          ],
          "stateMutability": "view",
          "type": "function"
        },
        {
          "inputs": [],
          "name": "test1Func20",
          "outputs": [],
          "stateMutability": "nonpayable",
          "type": "function"
        },
        {
          "inputs": [],
          "name": "test1Func3",
          "outputs": [],
          "stateMutability": "nonpayable",
          "type": "function"
        },
        {
          "inputs": [],
          "name": "test1Func4",
          "outputs": [],
          "stateMutability": "nonpayable",
          "type": "function"
        },
        {
          "inputs": [],
          "name": "test1Func5",
          "outputs": [],
          "stateMutability": "nonpayable",
          "type": "function"
        },
        {
          "inputs": [],
          "name": "test1Func6",
          "outputs": [],
          "stateMutability": "nonpayable",
          "type": "function"
        },
        {
          "inputs": [],
          "name": "test1Func7",
          "outputs": [],
          "stateMutability": "nonpayable",
          "type": "function"
        },
        {
          "inputs": [],
          "name": "test1Func8",
          "outputs": [],
          "stateMutability": "nonpayable",
          "type": "function"
        },
        {
          "inputs": [],
          "name": "test1Func9",
          "outputs": [],
          "stateMutability": "nonpayable",
          "type": "function"
        }
      ],
      "devdoc": {
        "kind": "dev",
        "methods": {},
        "version": 1
      },
      "evm": {
        "bytecode": {
          "linkReferences": {},
          "object": "608060405234801561001057600080fd5b5061025c806100206000396000f3fe608060405234801561001057600080fd5b50600436106101375760003560e01c806351b68a4d116100b85780639abf97aa1161007c5780639abf97aa14610185578063b0e8fcc714610185578063cbb835f614610185578063cd0bae0914610185578063cf3bbe1814610185578063db32da151461018557600080fd5b806351b68a4d1461018557806371a99d6f1461018557806377e9d0d61461018557806381b5207d1461018557806387952d221461018557600080fd5b806324c1d5a7116100ff57806324c1d5a714610185578063292c460d146101855780632cb83248146101855780634484b3b91461018557806350eb3f431461018557600080fd5b806301ffc9a71461013c5780630716c2ae14610165578063110460471461018557806319c841ab1461018557806319e3b53314610187575b600080fd5b61015061014a3660046101f5565b50600090565b60405190151581526020015b60405180910390f35b61016d6101bd565b6040516001600160a01b03909116815260200161015c565b005b6101857fe172d0f8decaecdd4c56ac9d5abd3aebbc2d423f323d7c1b0d0a8a21feef1df380546001600160a01b03191630179055565b60006101f07fe172d0f8decaecdd4c56ac9d5abd3aebbc2d423f323d7c1b0d0a8a21feef1df3546001600160a01b031690565b905090565b60006020828403121561020757600080fd5b81356001600160e01b03198116811461021f57600080fd5b939250505056fea2646970667358221220e52ef4e85b17778268062170ce079e8ee00e57c4a285601e02c516612d6b23a764736f6c634300080d0033",
          "opcodes": "PUSH1 0x80 PUSH1 0x40 MSTORE CALLVALUE DUP1 ISZERO PUSH2 0x10 JUMPI PUSH1 0x0 DUP1 REVERT JUMPDEST POP PUSH2 0x25C DUP1 PUSH2 0x20 PUSH1 0x0 CODECOPY PUSH1 0x0 RETURN INVALID PUSH1 0x80 PUSH1 0x40 MSTORE CALLVALUE DUP1 ISZERO PUSH2 0x10 JUMPI PUSH1 0x0 DUP1 REVERT JUMPDEST POP PUSH1 0x4 CALLDATASIZE LT PUSH2 0x137 JUMPI PUSH1 0x0 CALLDATALOAD PUSH1 0xE0 SHR DUP1 PUSH4 0x51B68A4D GT PUSH2 0xB8 JUMPI DUP1 PUSH4 0x9ABF97AA GT PUSH2 0x7C JUMPI DUP1 PUSH4 0x9ABF97AA EQ PUSH2 0x185 JUMPI DUP1 PUSH4 0xB0E8FCC7 EQ PUSH2 0x185 JUMPI DUP1 PUSH4 0xCBB835F6 EQ PUSH2 0x185 JUMPI DUP1 PUSH4 0xCD0BAE09 EQ PUSH2 0x185 JUMPI DUP1 PUSH4 0xCF3BBE18 EQ PUSH2 0x185 JUMPI DUP1 PUSH4 0xDB32DA15 EQ PUSH2 0x185 JUMPI PUSH1 0x0 DUP1 REVERT JUMPDEST DUP1 PUSH4 0x51B68A4D EQ PUSH2 0x185 JUMPI DUP1 PUSH4 0x71A99D6F EQ PUSH2 0x185 JUMPI DUP1 PUSH4 0x77E9D0D6 EQ PUSH2 0x185 JUMPI DUP1 PUSH4 0x81B5207D EQ PUSH2 0x185 JUMPI DUP1 PUSH4 0x87952D22 EQ PUSH2 0x185 JUMPI PUSH1 0x0 DUP1 REVERT JUMPDEST DUP1 PUSH4 0x24C1D5A7 GT PUSH2 0xFF JUMPI DUP1 PUSH4 0x24C1D5A7 EQ PUSH2 0x185 JUMPI DUP1 PUSH4 0x292C460D EQ PUSH2 0x185 JUMPI DUP1 PUSH4 0x2CB83248 EQ PUSH2 0x185 JUMPI DUP1 PUSH4 0x4484B3B9 EQ PUSH2 0x185 JUMPI DUP1 PUSH4 0x50EB3F43 EQ PUSH2 0x185 JUMPI PUSH1 0x0 DUP1 REVERT JUMPDEST DUP1 PUSH4 0x1FFC9A7 EQ PUSH2 0x13C JUMPI DUP1 PUSH4 0x716C2AE EQ PUSH2 0x165 JUMPI DUP1 PUSH4 0x11046047 EQ PUSH2 0x185 JUMPI DUP1 PUSH4 0x19C841AB EQ PUSH2 0x185 JUMPI DUP1 PUSH4 0x19E3B533 EQ PUSH2 0x187 JUMPI JUMPDEST PUSH1 0x0 DUP1 REVERT JUMPDEST PUSH2 0x150 PUSH2 0x14A CALLDATASIZE PUSH1 0x4 PUSH2 0x1F5 JUMP JUMPDEST POP PUSH1 0x0 SWAP1 JUMP JUMPDEST PUSH1 0x40 MLOAD SWAP1 ISZERO ISZERO DUP2 MSTORE PUSH1 0x20 ADD JUMPDEST PUSH1 0x40 MLOAD DUP1 SWAP2 SUB SWAP1 RETURN JUMPDEST PUSH2 0x16D PUSH2 0x1BD JUMP JUMPDEST PUSH1 0x40 MLOAD PUSH1 0x1 PUSH1 0x1 PUSH1 0xA0 SHL SUB SWAP1 SWAP2 AND DUP2 MSTORE PUSH1 0x20 ADD PUSH2 0x15C JUMP JUMPDEST STOP JUMPDEST PUSH2 0x185 PUSH32 0xE172D0F8DECAECDD4C56AC9D5ABD3AEBBC2D423F323D7C1B0D0A8A21FEEF1DF3 DUP1 SLOAD PUSH1 0x1 PUSH1 0x1 PUSH1 0xA0 SHL SUB NOT AND ADDRESS OR SWAP1 SSTORE JUMP JUMPDEST PUSH1 0x0 PUSH2 0x1F0 PUSH32 0xE172D0F8DECAECDD4C56AC9D5ABD3AEBBC2D423F323D7C1B0D0A8A21FEEF1DF3 SLOAD PUSH1 0x1 PUSH1 0x1 PUSH1 0xA0 SHL SUB AND SWAP1 JUMP JUMPDEST SWAP1 POP SWAP1 JUMP JUMPDEST PUSH1 0x0 PUSH1 0x20 DUP3 DUP5 SUB SLT ISZERO PUSH2 0x207 JUMPI PUSH1 0x0 DUP1 REVERT JUMPDEST DUP2 CALLDATALOAD PUSH1 0x1 PUSH1 0x1 PUSH1 0xE0 SHL SUB NOT DUP2 AND DUP2 EQ PUSH2 0x21F JUMPI PUSH1 0x0 DUP1 REVERT JUMPDEST SWAP4 SWAP3 POP POP POP JUMP INVALID LOG2 PUSH5 0x6970667358 0x22 SLT KECCAK256 0xE5 0x2E DELEGATECALL 0xE8 JUMPDEST OR PUSH24 0x8268062170CE079E8EE00E57C4A285601E02C516612D6B23 0xA7 PUSH5 0x736F6C6343 STOP ADDMOD 0xD STOP CALLER "
        },
        "gasEstimates": {
          "creation": {
            "codeDepositCost": "120800",
            "executionCost": "165",
            "totalCost": "120965"
          },
          "external": {
            "supportsInterface(bytes4)": "342",
            "test1Func1()": "24479",
            "test1Func10()": "231",
            "test1Func11()": "231",
            "test1Func12()": "209",
            "test1Func13()": "210",
            "test1Func14()": "143",
            "test1Func15()": "187",
            "test1Func16()": "187",
            "test1Func17()": "209",
            "test1Func18()": "142",
            "test1Func19()": "165",
            "test1Func2()": "2415",
            "test1Func20()": "164",
            "test1Func3()": "188",
            "test1Func4()": "230",
            "test1Func5()": "143",
            "test1Func6()": "186",
            "test1Func7()": "165",
            "test1Func8()": "252",
            "test1Func9()": "208"
          }
        },
        "methodIdentifiers": {
          "supportsInterface(bytes4)": "01ffc9a7",
          "test1Func1()": "19e3b533",
          "test1Func10()": "87952d22",
          "test1Func11()": "50eb3f43",
          "test1Func12()": "81b5207d",
          "test1Func13()": "19c841ab",
          "test1Func14()": "51b68a4d",
          "test1Func15()": "2cb83248",
          "test1Func16()": "77e9d0d6",
          "test1Func17()": "4484b3b9",
          "test1Func18()": "9abf97aa",
          "test1Func19()": "292c460d",
          "test1Func2()": "0716c2ae",
          "test1Func20()": "b0e8fcc7",
          "test1Func3()": "11046047",
          "test1Func4()": "cf3bbe18",
          "test1Func5()": "24c1d5a7",
          "test1Func6()": "cbb835f6",
          "test1Func7()": "71a99d6f",
          "test1Func8()": "db32da15",
          "test1Func9()": "cd0bae09"
        }
      },
      "storageLayout": {
        "storage": [],
        "types": null
      },
      "userdoc": {
        "kind": "user",
        "methods": {},
        "version": 1
      }
    }
  }
}