{
  "contracts/upgradeInitializers/DiamondMultiInit.sol": {
    "DiamondMultiInit": {
      "abi": [
        {
          "inputs": [
            {
              "internalType": "uint256",
              "name": "_addressesLength",
              "type": "uint256"
            },
            {
              "internalType": "uint256",
              "name": "_calldataLength",
              "type": "uint256"
            }
          ],
          "name": "AddressAndCalldataLengthDoNotMatch",
          "type": "error"
        },
        {
          "inputs": [
            {
              "internalType": "address",
              "name": "_initializationContractAddress",
              "type": "address"
            },
            {
              "internalType": "bytes",
              "name": "_calldata",
              "type": "bytes"
            }
          ],
          "name": "InitializationFunctionReverted",
          "type": "error"
        },
        {
          "inputs": [
            {
              "internalType": "address",
              "name": "_contractAddress",
              "type": "address"
            },
            {
              "internalType": "string",
              "name": "_message",
              "type": "string"
            }
          ],
          "name": "NoBytecodeAtAddress",
          "type": "error"
        },
        {
          "inputs": [
            {
              "internalType": "address[]",
              "name": "_addresses",
              "type": "address[]"
            },
            {
              "internalType": "bytes[]",
              "name": "_calldata",
              "type": "bytes[]"
            }
          ],
          "name": "multiInit",
          "outputs": [],
          "stateMutability": "nonpayable",
          "type": "function"
        }
      ],
      "devdoc": {
        "kind": "dev",
        "methods": {},
        "version": 1
      },
      "evm": {
        "bytecode": {
          "linkReferences": {},
          "object": "608060405234801561001057600080fd5b50610483806100206000396000f3fe608060405234801561001057600080fd5b506004361061002b5760003560e01c80636e02fa3c14610030575b600080fd5b61004361003e366004610265565b610045565b005b828114610074576040516339a070b360e11b815260048101849052602481018290526044015b60405180910390fd5b60005b8381101561011957610107858583818110610094576100946102d1565b90506020020160208101906100a991906102e7565b8484848181106100bb576100bb6102d1565b90506020028101906100cd9190610317565b8080601f01602080910402602001604051908101604052809392919081815260200183838082843760009201919091525061012092505050565b806101118161035e565b915050610077565b5050505050565b6001600160a01b038216610132575050565b61015482604051806060016040528060288152602001610426602891396101ec565b600080836001600160a01b03168360405161016f91906103b1565b600060405180830381855af49150503d80600081146101aa576040519150601f19603f3d011682016040523d82523d6000602084013e6101af565b606091505b5091509150816101e6578051156101c95780518082602001fd5b838360405163192105d760e01b815260040161006b9291906103f9565b50505050565b813b600081900361021457828260405163919834b960e01b815260040161006b9291906103f9565b505050565b60008083601f84011261022b57600080fd5b50813567ffffffffffffffff81111561024357600080fd5b6020830191508360208260051b850101111561025e57600080fd5b9250929050565b6000806000806040858703121561027b57600080fd5b843567ffffffffffffffff8082111561029357600080fd5b61029f88838901610219565b909650945060208701359150808211156102b857600080fd5b506102c587828801610219565b95989497509550505050565b634e487b7160e01b600052603260045260246000fd5b6000602082840312156102f957600080fd5b81356001600160a01b038116811461031057600080fd5b9392505050565b6000808335601e1984360301811261032e57600080fd5b83018035915067ffffffffffffffff82111561034957600080fd5b60200191503681900382131561025e57600080fd5b60006001820161037e57634e487b7160e01b600052601160045260246000fd5b5060010190565b60005b838110156103a0578181015183820152602001610388565b838111156101e65750506000910152565b600082516103c3818460208701610385565b9190910192915050565b600081518084526103e5816020860160208601610385565b601f01601f19169290920160200192915050565b6001600160a01b038316815260406020820181905260009061041d908301846103cd565b94935050505056fe4c69624469616d6f6e644375743a205f696e6974206164647265737320686173206e6f20636f6465a2646970667358221220f746bfb04721712c592e4a27d78d74a77bf031a469cde60b92be0deabea67c4964736f6c634300080d0033",
          "opcodes": "PUSH1 0x80 PUSH1 0x40 MSTORE CALLVALUE DUP1 ISZERO PUSH2 0x10 JUMPI PUSH1 0x0 DUP1 REVERT JUMPDEST POP PUSH2 0x483 DUP1 PUSH2 0x20 PUSH1 0x0 CODECOPY PUSH1 0x0 RETURN INVALID PUSH1 0x80 PUSH1 0x40 MSTORE CALLVALUE DUP1 ISZERO PUSH2 0x10 JUMPI PUSH1 0x0 DUP1 REVERT JUMPDEST POP PUSH1 0x4 CALLDATASIZE LT PUSH2 0x2B JUMPI PUSH1 0x0 CALLDATALOAD PUSH1 0xE0 SHR DUP1 PUSH4 0x6E02FA3C EQ PUSH2 0x30 JUMPI JUMPDEST PUSH1 0x0 DUP1 REVERT JUMPDEST PUSH2 0x43 PUSH2 0x3E CALLDATASIZE PUSH1 0x4 PUSH2 0x265 JUMP JUMPDEST PUSH2 0x45 JUMP JUMPDEST STOP JUMPDEST DUP3 DUP2 EQ PUSH2 0x74 JUMPI PUSH1 0x40 MLOAD PUSH4 0x39A070B3 PUSH1 0xE1 SHL DUP2 MSTORE PUSH1 0x4 DUP2 ADD DUP5 SWAP1 MSTORE PUSH1 0x24 DUP2 ADD DUP3 SWAP1 MSTORE PUSH1 0x44 ADD JUMPDEST PUSH1 0x40 MLOAD DUP1 SWAP2 SUB SWAP1 REVERT JUMPDEST PUSH1 0x0 JUMPDEST DUP4 DUP2 LT ISZERO PUSH2 0x119 JUMPI PUSH2 0x107 DUP6 DUP6 DUP4 DUP2 DUP2 LT PUSH2 0x94 JUMPI PUSH2 0x94 PUSH2 0x2D1 JUMP JUMPDEST SWAP1 POP PUSH1 0x20 MUL ADD PUSH1 0x20 DUP2 ADD SWAP1 PUSH2 0xA9 SWAP2 SWAP1 PUSH2 0x2E7 JUMP JUMPDEST DUP5 DUP5 DUP5 DUP2 DUP2 LT PUSH2 0xBB JUMPI PUSH2 0xBB PUSH2 0x2D1 JUMP JUMPDEST SWAP1 POP PUSH1 0x20 MUL DUP2 ADD SWAP1 PUSH2 0xCD SWAP2 SWAP1 PUSH2 0x317 JUMP JUMPDEST DUP1 DUP1 PUSH1 0x1F ADD PUSH1 0x20 DUP1 SWAP2 DIV MUL PUSH1 0x20 ADD PUSH1 0x40 MLOAD SWAP1 DUP2 ADD PUSH1 0x40 MSTORE DUP1 SWAP4 SWAP3 SWAP2 SWAP1 DUP2 DUP2 MSTORE PUSH1 0x20 ADD DUP4 DUP4 DUP1 DUP3 DUP5 CALLDATACOPY PUSH1 0x0 SWAP3 ADD SWAP2 SWAP1 SWAP2 MSTORE POP PUSH2 0x120 SWAP3 POP POP POP JUMP JUMPDEST DUP1 PUSH2 0x111 DUP2 PUSH2 0x35E JUMP JUMPDEST SWAP2 POP POP PUSH2 0x77 JUMP JUMPDEST POP POP POP POP POP JUMP JUMPDEST PUSH1 0x1 PUSH1 0x1 PUSH1 0xA0 SHL SUB DUP3 AND PUSH2 0x132 JUMPI POP POP JUMP JUMPDEST PUSH2 0x154 DUP3 PUSH1 0x40 MLOAD DUP1 PUSH1 0x60 ADD PUSH1 0x40 MSTORE DUP1 PUSH1 0x28 DUP2 MSTORE PUSH1 0x20 ADD PUSH2 0x426 PUSH1 0x28 SWAP2 CODECOPY PUSH2 0x1EC JUMP JUMPDEST PUSH1 0x0 DUP1 DUP4 PUSH1 0x1 PUSH1 0x1 PUSH1 0xA0 SHL SUB AND DUP4 PUSH1 0x40 MLOAD PUSH2 0x16F SWAP2 SWAP1 PUSH2 0x3B1 JUMP JUMPDEST PUSH1 0x0 PUSH1 0x40 MLOAD DUP1 DUP4 SUB DUP2 DUP6 GAS DELEGATECALL SWAP2 POP POP RETURNDATASIZE DUP1 PUSH1 0x0 DUP2 EQ PUSH2 0x1AA JUMPI PUSH1 0x40 MLOAD SWAP2 POP PUSH1 0x1F NOT PUSH1 0x3F RETURNDATASIZE ADD AND DUP3 ADD PUSH1 0x40 MSTORE RETURNDATASIZE DUP3 MSTORE RETURNDATASIZE PUSH1 0x0 PUSH1 0x20 DUP5 ADD RETURNDATACOPY PUSH2 0x1AF JUMP JUMPDEST PUSH1 0x60 SWAP2 POP JUMPDEST POP SWAP2 POP SWAP2 POP DUP2 PUSH2 0x1E6 JUMPI DUP1 MLOAD ISZERO PUSH2 0x1C9 JUMPI DUP1 MLOAD DUP1 DUP3 PUSH1 0x20 ADD REVERT JUMPDEST DUP4 DUP4 PUSH1 0x40 MLOAD PUSH4 0x192105D7 PUSH1 0xE0 SHL DUP2 MSTORE PUSH1 0x4 ADD PUSH2 0x6B SWAP3 SWAP2 SWAP1 PUSH2 0x3F9 JUMP JUMPDEST POP POP POP POP JUMP JUMPDEST DUP2 EXTCODESIZE PUSH1 0x0 DUP2 SWAP1 SUB PUSH2 0x214 JUMPI DUP3 DUP3 PUSH1 0x40 MLOAD PUSH4 0x919834B9 PUSH1 0xE0 SHL DUP2 MSTORE PUSH1 0x4 ADD PUSH2 0x6B SWAP3 SWAP2 SWAP1 PUSH2 0x3F9 JUMP JUMPDEST POP POP POP JUMP JUMPDEST PUSH1 0x0 DUP1 DUP4 PUSH1 0x1F DUP5 ADD SLT PUSH2 0x22B JUMPI PUSH1 0x0 DUP1 REVERT JUMPDEST POP DUP2 CALLDATALOAD PUSH8 0xFFFFFFFFFFFFFFFF DUP2 GT ISZERO PUSH2 0x243 JUMPI PUSH1 0x0 DUP1 REVERT JUMPDEST PUSH1 0x20 DUP4 ADD SWAP2 POP DUP4 PUSH1 0x20 DUP3 PUSH1 0x5 SHL DUP6 ADD ADD GT ISZERO PUSH2 0x25E JUMPI PUSH1 0x0 DUP1 REVERT JUMPDEST SWAP3 POP SWAP3 SWAP1 POP JUMP JUMPDEST PUSH1 0x0 DUP1 PUSH1 0x0 DUP1 PUSH1 0x40 DUP6 DUP8 SUB SLT ISZERO PUSH2 0x27B JUMPI PUSH1 0x0 DUP1 REVERT JUMPDEST DUP5 CALLDATALOAD PUSH8 0xFFFFFFFFFFFFFFFF DUP1 DUP3 GT ISZERO PUSH2 0x293 JUMPI PUSH1 0x0 DUP1 REVERT JUMPDEST PUSH2 0x29F DUP9 DUP4 DUP10 ADD PUSH2 0x219 JUMP JUMPDEST SWAP1 SWAP7 POP SWAP5 POP PUSH1 0x20 DUP8 ADD CALLDATALOAD SWAP2 POP DUP1 DUP3 GT ISZERO PUSH2 0x2B8 JUMPI PUSH1 0x0 DUP1 REVERT JUMPDEST POP PUSH2 0x2C5 DUP8 DUP3 DUP9 ADD PUSH2 0x219 JUMP JUMPDEST SWAP6 SWAP9 SWAP5 SWAP8 POP SWAP6 POP POP POP POP JUMP JUMPDEST PUSH4 0x4E487B71 PUSH1 0xE0 SHL PUSH1 0x0 MSTORE PUSH1 0x32 PUSH1 0x4 MSTORE PUSH1 0x24 PUSH1 0x0 REVERT JUMPDEST PUSH1 0x0 PUSH1 0x20 DUP3 DUP5 SUB SLT ISZERO PUSH2 0x2F9 JUMPI PUSH1 0x0 DUP1 REVERT JUMPDEST DUP2 CALLDATALOAD PUSH1 0x1 PUSH1 0x1 PUSH1 0xA0 SHL SUB DUP2 AND DUP2 EQ PUSH2 0x310 JUMPI PUSH1 0x0 DUP1 REVERT JUMPDEST SWAP4 SWAP3 POP POP POP JUMP JUMPDEST PUSH1 0x0 DUP1 DUP4 CALLDATALOAD PUSH1 0x1E NOT DUP5 CALLDATASIZE SUB ADD DUP2 SLT PUSH2 0x32E JUMPI PUSH1 0x0 DUP1 REVERT JUMPDEST DUP4 ADD DUP1 CALLDATALOAD SWAP2 POP PUSH8 0xFFFFFFFFFFFFFFFF DUP3 GT ISZERO PUSH2 0x349 JUMPI PUSH1 0x0 DUP1 REVERT JUMPDEST PUSH1 0x20 ADD SWAP2 POP CALLDATASIZE DUP2 SWAP1 SUB DUP3 SGT ISZERO PUSH2 0x25E JUMPI PUSH1 0x0 DUP1 REVERT JUMPDEST PUSH1 0x0 PUSH1 0x1 DUP3 ADD PUSH2 0x37E JUMPI PUSH4 0x4E487B71 PUSH1 0xE0 SHL PUSH1 0x0 MSTORE PUSH1 0x11 PUSH1 0x4 MSTORE PUSH1 0x24 PUSH1 0x0 REVERT JUMPDEST POP PUSH1 0x1 ADD SWAP1 JUMP JUMPDEST PUSH1 0x0 JUMPDEST DUP4 DUP2 LT ISZERO PUSH2 0x3A0 JUMPI DUP2 DUP2 ADD MLOAD DUP4 DUP3 ADD MSTORE PUSH1 0x20 ADD PUSH2 0x388 JUMP JUMPDEST DUP4 DUP2 GT ISZERO PUSH2 0x1E6 JUMPI POP POP PUSH1 0x0 SWAP2 ADD MSTORE JUMP JUMPDEST PUSH1 0x0 DUP3 MLOAD PUSH2 0x3C3 DUP2 DUP5 PUSH1 0x20 DUP8 ADD PUSH2 0x385 JUMP JUMPDEST SWAP2 SWAP1 SWAP2 ADD SWAP3 SWAP2 POP POP JUMP JUMPDEST PUSH1 0x0 DUP2 MLOAD DUP1 DUP5 MSTORE PUSH2 0x3E5 DUP2 PUSH1 0x20 DUP7 ADD PUSH1 0x20 DUP7 ADD PUSH2 0x385 JUMP JUMPDEST PUSH1 0x1F ADD PUSH1 0x1F NOT AND SWAP3 SWAP1 SWAP3 ADD PUSH1 0x20 ADD SWAP3 SWAP2 POP POP JUMP JUMPDEST PUSH1 0x1 PUSH1 0x1 PUSH1 0xA0 SHL SUB DUP4 AND DUP2 MSTORE PUSH1 0x40 PUSH1 0x20 DUP3 ADD DUP2 SWAP1 MSTORE PUSH1 0x0 SWAP1 PUSH2 0x41D SWAP1 DUP4 ADD DUP5 PUSH2 0x3CD JUMP JUMPDEST SWAP5 SWAP4 POP POP POP POP JUMP INVALID 0x4C PUSH10 0x624469616D6F6E644375 PUSH21 0x3A205F696E6974206164647265737320686173206E PUSH16 0x20636F6465A2646970667358221220F7 CHAINID 0xBF 0xB0 SELFBALANCE 0x21 PUSH18 0x2C592E4A27D78D74A77BF031A469CDE60B92 0xBE 0xD 0xEA 0xBE 0xA6 PUSH29 0x4964736F6C634300080D00330000000000000000000000000000000000 "
        },
        "gasEstimates": {
          "creation": {
            "codeDepositCost": "231000",
            "executionCost": "275",
            "totalCost": "231275"
          },
          "external": {
            "multiInit(address[],bytes[])": "infinite"
          }
        },
        "methodIdentifiers": {
          "multiInit(address[],bytes[])": "6e02fa3c"
        }
      },
      "storageLayout": {
        "storage": [],
        "types": null
      },
      "userdoc": {
        "kind": "user",
        "methods": {},
        "version": 1
      }
    }
  }
}