{
  "contracts/PoC/facets/BeerWineStoreFacet.sol": {
    "BeerWineStoreFacet": {
      "abi": [
        {
          "inputs": [],
          "name": "ItemNotAvailable",
          "type": "error"
        },
        {
          "inputs": [],
          "name": "ItemNotSoldAtStore",
          "type": "error"
        },
        {
          "inputs": [
            {
              "internalType": "address",
              "name": "_user",
              "type": "address"
            },
            {
              "internalType": "address",
              "name": "_contractOwner",
              "type": "address"
            }
          ],
          "name": "NotContractOwner",
          "type": "error"
        },
        {
          "inputs": [],
          "name": "UnderageCustomer",
          "type": "error"
        },
        {
          "anonymous": false,
          "inputs": [
            {
              "indexed": false,
              "internalType": "uint256",
              "name": "idx",
              "type": "uint256"
            },
            {
              "indexed": false,
              "internalType": "string",
              "name": "name",
              "type": "string"
            }
          ],
          "name": "AlcoholAdded",
          "type": "event"
        },
        {
          "inputs": [
            {
              "internalType": "string",
              "name": "_newBeer",
              "type": "string"
            }
          ],
          "name": "addAlcohol",
          "outputs": [],
          "stateMutability": "nonpayable",
          "type": "function"
        },
        {
          "inputs": [
            {
              "internalType": "uint256",
              "name": "_idx",
              "type": "uint256"
            },
            {
              "internalType": "uint256",
              "name": "age",
              "type": "uint256"
            }
          ],
          "name": "buyAlcohol",
          "outputs": [],
          "stateMutability": "nonpayable",
          "type": "function"
        },
        {
          "inputs": [],
          "name": "getBeerStoreItems",
          "outputs": [
            {
              "internalType": "string[]",
              "name": "itemList",
              "type": "string[]"
            }
          ],
          "stateMutability": "view",
          "type": "function"
        },
        {
          "inputs": [
            {
              "internalType": "uint256",
              "name": "_minAge",
              "type": "uint256"
            }
          ],
          "name": "setMinAge",
          "outputs": [],
          "stateMutability": "nonpayable",
          "type": "function"
        }
      ],
      "devdoc": {
        "kind": "dev",
        "methods": {},
        "version": 1
      },
      "evm": {
        "bytecode": {
          "linkReferences": {},
          "object": "608060405234801561001057600080fd5b506108b7806100206000396000f3fe608060405234801561001057600080fd5b506004361061004c5760003560e01c80630d66b8e814610051578063bdd33bf014610066578063c677efc214610084578063d34ff9c314610097575b600080fd5b61006461005f366004610683565b6100c9565b005b61006e6100de565b60405161007b9190610734565b60405180910390f35b6100646100923660046107cf565b6100ee565b6100646100a53660046107f1565b7ff352ba126091b494126fef2892c8da20801fd26146bd0cb5611cfe00f6dc924a55565b6100d1610105565b6100db813061018f565b50565b60606100e93061026f565b905090565b6100f781610422565b6101018230610464565b5050565b7fc8fcad8db84d3cc18b4c41d551ea0ee66dd599cde068d998e57d5e09332c131c600301546001600160a01b0316331461018d577fc8fcad8db84d3cc18b4c41d551ea0ee66dd599cde068d998e57d5e09332c131f5460408051600162bed83560e01b031981523360048201526001600160a01b039092166024830152519081900360440190fd5b565b7f3e1203f9e3017e885f293b2817c8cf13c3f1a69d3fb206a868b5d52ad69ac93e805460010180825560009081527f3e1203f9e3017e885f293b2817c8cf13c3f1a69d3fb206a868b5d52ad69ac93f6020908152604090912084516101f6928601906105d4565b5081600382016000610206845490565b815260200190815260200160002060006101000a8154816001600160a01b0302191690836001600160a01b03160217905550600181600201600061024b846000015490565b81526020810191909152604001600020805460ff1916911515919091179055505050565b7f3e1203f9e3017e885f293b2817c8cf13c3f1a69d3fb206a868b5d52ad69ac93e8054606091908067ffffffffffffffff8111156102af576102af61066d565b6040519080825280602002602001820160405280156102e257816020015b60608152602001906001900390816102cd5790505b509250600060015b828111610419576001600160a01b038616158061033d5750600081815260028501602052604090205460ff16801561033d575060008181526003850160205260409020546001600160a01b038781169116145b156104075760008181526001850160205260409020805461035d9061080a565b80601f01602080910402602001604051908101604052809291908181526020018280546103899061080a565b80156103d65780601f106103ab576101008083540402835291602001916103d6565b820191906000526020600020905b8154815290600101906020018083116103b957829003601f168201915b50505050508583815181106103ed576103ed610844565b602002602001018190525081806104039061085a565b9250505b806104118161085a565b9150506102ea565b50505050919050565b7ff352ba126091b494126fef2892c8da20801fd26146bd0cb5611cfe00f6dc924a548110156100db576040516302e3d90b60e01b815260040160405180910390fd5b61046e818361052d565b61047782610586565b60008281527f3e1203f9e3017e885f293b2817c8cf13c3f1a69d3fb206a868b5d52ad69ac9426020526040812080547f3e1203f9e3017e885f293b2817c8cf13c3f1a69d3fb206a868b5d52ad69ac93e929091906104d48361085a565b9091555050336000908152600582016020908152604080832086845290915281208054916105018361085a565b909155505033600090815260068201602052604081208054916105238361085a565b9190505550505050565b60008181527f3e1203f9e3017e885f293b2817c8cf13c3f1a69d3fb206a868b5d52ad69ac94160205260409020546001600160a01b0383811691161461010157604051630306e2d560e31b815260040160405180910390fd5b60008181527f3e1203f9e3017e885f293b2817c8cf13c3f1a69d3fb206a868b5d52ad69ac940602052604090205460ff166100db57604051633c1c65a160e21b815260040160405180910390fd5b8280546105e09061080a565b90600052602060002090601f0160209004810192826106025760008555610648565b82601f1061061b57805160ff1916838001178555610648565b82800160010185558215610648579182015b8281111561064857825182559160200191906001019061062d565b50610654929150610658565b5090565b5b808211156106545760008155600101610659565b634e487b7160e01b600052604160045260246000fd5b60006020828403121561069557600080fd5b813567ffffffffffffffff808211156106ad57600080fd5b818401915084601f8301126106c157600080fd5b8135818111156106d3576106d361066d565b604051601f8201601f19908116603f011681019083821181831017156106fb576106fb61066d565b8160405282815287602084870101111561071457600080fd5b826020860160208301376000928101602001929092525095945050505050565b6000602080830181845280855180835260408601915060408160051b87010192508387016000805b838110156107c157888603603f1901855282518051808852835b81811015610791578281018a01518982018b01528901610776565b818111156107a157848a838b0101525b50601f01601f19169690960187019550938601939186019160010161075c565b509398975050505050505050565b600080604083850312156107e257600080fd5b50508035926020909101359150565b60006020828403121561080357600080fd5b5035919050565b600181811c9082168061081e57607f821691505b60208210810361083e57634e487b7160e01b600052602260045260246000fd5b50919050565b634e487b7160e01b600052603260045260246000fd5b60006001820161087a57634e487b7160e01b600052601160045260246000fd5b506001019056fea2646970667358221220f2d4c6ad5178218403cb2362e675ae31c30549a29baeeaf3aec79d194cf1683064736f6c634300080d0033",
          "opcodes": "PUSH1 0x80 PUSH1 0x40 MSTORE CALLVALUE DUP1 ISZERO PUSH2 0x10 JUMPI PUSH1 0x0 DUP1 REVERT JUMPDEST POP PUSH2 0x8B7 DUP1 PUSH2 0x20 PUSH1 0x0 CODECOPY PUSH1 0x0 RETURN INVALID PUSH1 0x80 PUSH1 0x40 MSTORE CALLVALUE DUP1 ISZERO PUSH2 0x10 JUMPI PUSH1 0x0 DUP1 REVERT JUMPDEST POP PUSH1 0x4 CALLDATASIZE LT PUSH2 0x4C JUMPI PUSH1 0x0 CALLDATALOAD PUSH1 0xE0 SHR DUP1 PUSH4 0xD66B8E8 EQ PUSH2 0x51 JUMPI DUP1 PUSH4 0xBDD33BF0 EQ PUSH2 0x66 JUMPI DUP1 PUSH4 0xC677EFC2 EQ PUSH2 0x84 JUMPI DUP1 PUSH4 0xD34FF9C3 EQ PUSH2 0x97 JUMPI JUMPDEST PUSH1 0x0 DUP1 REVERT JUMPDEST PUSH2 0x64 PUSH2 0x5F CALLDATASIZE PUSH1 0x4 PUSH2 0x683 JUMP JUMPDEST PUSH2 0xC9 JUMP JUMPDEST STOP JUMPDEST PUSH2 0x6E PUSH2 0xDE JUMP JUMPDEST PUSH1 0x40 MLOAD PUSH2 0x7B SWAP2 SWAP1 PUSH2 0x734 JUMP JUMPDEST PUSH1 0x40 MLOAD DUP1 SWAP2 SUB SWAP1 RETURN JUMPDEST PUSH2 0x64 PUSH2 0x92 CALLDATASIZE PUSH1 0x4 PUSH2 0x7CF JUMP JUMPDEST PUSH2 0xEE JUMP JUMPDEST PUSH2 0x64 PUSH2 0xA5 CALLDATASIZE PUSH1 0x4 PUSH2 0x7F1 JUMP JUMPDEST PUSH32 0xF352BA126091B494126FEF2892C8DA20801FD26146BD0CB5611CFE00F6DC924A SSTORE JUMP JUMPDEST PUSH2 0xD1 PUSH2 0x105 JUMP JUMPDEST PUSH2 0xDB DUP2 ADDRESS PUSH2 0x18F JUMP JUMPDEST POP JUMP JUMPDEST PUSH1 0x60 PUSH2 0xE9 ADDRESS PUSH2 0x26F JUMP JUMPDEST SWAP1 POP SWAP1 JUMP JUMPDEST PUSH2 0xF7 DUP2 PUSH2 0x422 JUMP JUMPDEST PUSH2 0x101 DUP3 ADDRESS PUSH2 0x464 JUMP JUMPDEST POP POP JUMP JUMPDEST PUSH32 0xC8FCAD8DB84D3CC18B4C41D551EA0EE66DD599CDE068D998E57D5E09332C131C PUSH1 0x3 ADD SLOAD PUSH1 0x1 PUSH1 0x1 PUSH1 0xA0 SHL SUB AND CALLER EQ PUSH2 0x18D JUMPI PUSH32 0xC8FCAD8DB84D3CC18B4C41D551EA0EE66DD599CDE068D998E57D5E09332C131F SLOAD PUSH1 0x40 DUP1 MLOAD PUSH1 0x1 PUSH3 0xBED835 PUSH1 0xE0 SHL SUB NOT DUP2 MSTORE CALLER PUSH1 0x4 DUP3 ADD MSTORE PUSH1 0x1 PUSH1 0x1 PUSH1 0xA0 SHL SUB SWAP1 SWAP3 AND PUSH1 0x24 DUP4 ADD MSTORE MLOAD SWAP1 DUP2 SWAP1 SUB PUSH1 0x44 ADD SWAP1 REVERT JUMPDEST JUMP JUMPDEST PUSH32 0x3E1203F9E3017E885F293B2817C8CF13C3F1A69D3FB206A868B5D52AD69AC93E DUP1 SLOAD PUSH1 0x1 ADD DUP1 DUP3 SSTORE PUSH1 0x0 SWAP1 DUP2 MSTORE PUSH32 0x3E1203F9E3017E885F293B2817C8CF13C3F1A69D3FB206A868B5D52AD69AC93F PUSH1 0x20 SWAP1 DUP2 MSTORE PUSH1 0x40 SWAP1 SWAP2 KECCAK256 DUP5 MLOAD PUSH2 0x1F6 SWAP3 DUP7 ADD SWAP1 PUSH2 0x5D4 JUMP JUMPDEST POP DUP2 PUSH1 0x3 DUP3 ADD PUSH1 0x0 PUSH2 0x206 DUP5 SLOAD SWAP1 JUMP JUMPDEST DUP2 MSTORE PUSH1 0x20 ADD SWAP1 DUP2 MSTORE PUSH1 0x20 ADD PUSH1 0x0 KECCAK256 PUSH1 0x0 PUSH2 0x100 EXP DUP2 SLOAD DUP2 PUSH1 0x1 PUSH1 0x1 PUSH1 0xA0 SHL SUB MUL NOT AND SWAP1 DUP4 PUSH1 0x1 PUSH1 0x1 PUSH1 0xA0 SHL SUB AND MUL OR SWAP1 SSTORE POP PUSH1 0x1 DUP2 PUSH1 0x2 ADD PUSH1 0x0 PUSH2 0x24B DUP5 PUSH1 0x0 ADD SLOAD SWAP1 JUMP JUMPDEST DUP2 MSTORE PUSH1 0x20 DUP2 ADD SWAP2 SWAP1 SWAP2 MSTORE PUSH1 0x40 ADD PUSH1 0x0 KECCAK256 DUP1 SLOAD PUSH1 0xFF NOT AND SWAP2 ISZERO ISZERO SWAP2 SWAP1 SWAP2 OR SWAP1 SSTORE POP POP POP JUMP JUMPDEST PUSH32 0x3E1203F9E3017E885F293B2817C8CF13C3F1A69D3FB206A868B5D52AD69AC93E DUP1 SLOAD PUSH1 0x60 SWAP2 SWAP1 DUP1 PUSH8 0xFFFFFFFFFFFFFFFF DUP2 GT ISZERO PUSH2 0x2AF JUMPI PUSH2 0x2AF PUSH2 0x66D JUMP JUMPDEST PUSH1 0x40 MLOAD SWAP1 DUP1 DUP3 MSTORE DUP1 PUSH1 0x20 MUL PUSH1 0x20 ADD DUP3 ADD PUSH1 0x40 MSTORE DUP1 ISZERO PUSH2 0x2E2 JUMPI DUP2 PUSH1 0x20 ADD JUMPDEST PUSH1 0x60 DUP2 MSTORE PUSH1 0x20 ADD SWAP1 PUSH1 0x1 SWAP1 SUB SWAP1 DUP2 PUSH2 0x2CD JUMPI SWAP1 POP JUMPDEST POP SWAP3 POP PUSH1 0x0 PUSH1 0x1 JUMPDEST DUP3 DUP2 GT PUSH2 0x419 JUMPI PUSH1 0x1 PUSH1 0x1 PUSH1 0xA0 SHL SUB DUP7 AND ISZERO DUP1 PUSH2 0x33D JUMPI POP PUSH1 0x0 DUP2 DUP2 MSTORE PUSH1 0x2 DUP6 ADD PUSH1 0x20 MSTORE PUSH1 0x40 SWAP1 KECCAK256 SLOAD PUSH1 0xFF AND DUP1 ISZERO PUSH2 0x33D JUMPI POP PUSH1 0x0 DUP2 DUP2 MSTORE PUSH1 0x3 DUP6 ADD PUSH1 0x20 MSTORE PUSH1 0x40 SWAP1 KECCAK256 SLOAD PUSH1 0x1 PUSH1 0x1 PUSH1 0xA0 SHL SUB DUP8 DUP2 AND SWAP2 AND EQ JUMPDEST ISZERO PUSH2 0x407 JUMPI PUSH1 0x0 DUP2 DUP2 MSTORE PUSH1 0x1 DUP6 ADD PUSH1 0x20 MSTORE PUSH1 0x40 SWAP1 KECCAK256 DUP1 SLOAD PUSH2 0x35D SWAP1 PUSH2 0x80A JUMP JUMPDEST DUP1 PUSH1 0x1F ADD PUSH1 0x20 DUP1 SWAP2 DIV MUL PUSH1 0x20 ADD PUSH1 0x40 MLOAD SWAP1 DUP2 ADD PUSH1 0x40 MSTORE DUP1 SWAP3 SWAP2 SWAP1 DUP2 DUP2 MSTORE PUSH1 0x20 ADD DUP3 DUP1 SLOAD PUSH2 0x389 SWAP1 PUSH2 0x80A JUMP JUMPDEST DUP1 ISZERO PUSH2 0x3D6 JUMPI DUP1 PUSH1 0x1F LT PUSH2 0x3AB JUMPI PUSH2 0x100 DUP1 DUP4 SLOAD DIV MUL DUP4 MSTORE SWAP2 PUSH1 0x20 ADD SWAP2 PUSH2 0x3D6 JUMP JUMPDEST DUP3 ADD SWAP2 SWAP1 PUSH1 0x0 MSTORE PUSH1 0x20 PUSH1 0x0 KECCAK256 SWAP1 JUMPDEST DUP2 SLOAD DUP2 MSTORE SWAP1 PUSH1 0x1 ADD SWAP1 PUSH1 0x20 ADD DUP1 DUP4 GT PUSH2 0x3B9 JUMPI DUP3 SWAP1 SUB PUSH1 0x1F AND DUP3 ADD SWAP2 JUMPDEST POP POP POP POP POP DUP6 DUP4 DUP2 MLOAD DUP2 LT PUSH2 0x3ED JUMPI PUSH2 0x3ED PUSH2 0x844 JUMP JUMPDEST PUSH1 0x20 MUL PUSH1 0x20 ADD ADD DUP2 SWAP1 MSTORE POP DUP2 DUP1 PUSH2 0x403 SWAP1 PUSH2 0x85A JUMP JUMPDEST SWAP3 POP POP JUMPDEST DUP1 PUSH2 0x411 DUP2 PUSH2 0x85A JUMP JUMPDEST SWAP2 POP POP PUSH2 0x2EA JUMP JUMPDEST POP POP POP POP SWAP2 SWAP1 POP JUMP JUMPDEST PUSH32 0xF352BA126091B494126FEF2892C8DA20801FD26146BD0CB5611CFE00F6DC924A SLOAD DUP2 LT ISZERO PUSH2 0xDB JUMPI PUSH1 0x40 MLOAD PUSH4 0x2E3D90B PUSH1 0xE0 SHL DUP2 MSTORE PUSH1 0x4 ADD PUSH1 0x40 MLOAD DUP1 SWAP2 SUB SWAP1 REVERT JUMPDEST PUSH2 0x46E DUP2 DUP4 PUSH2 0x52D JUMP JUMPDEST PUSH2 0x477 DUP3 PUSH2 0x586 JUMP JUMPDEST PUSH1 0x0 DUP3 DUP2 MSTORE PUSH32 0x3E1203F9E3017E885F293B2817C8CF13C3F1A69D3FB206A868B5D52AD69AC942 PUSH1 0x20 MSTORE PUSH1 0x40 DUP2 KECCAK256 DUP1 SLOAD PUSH32 0x3E1203F9E3017E885F293B2817C8CF13C3F1A69D3FB206A868B5D52AD69AC93E SWAP3 SWAP1 SWAP2 SWAP1 PUSH2 0x4D4 DUP4 PUSH2 0x85A JUMP JUMPDEST SWAP1 SWAP2 SSTORE POP POP CALLER PUSH1 0x0 SWAP1 DUP2 MSTORE PUSH1 0x5 DUP3 ADD PUSH1 0x20 SWAP1 DUP2 MSTORE PUSH1 0x40 DUP1 DUP4 KECCAK256 DUP7 DUP5 MSTORE SWAP1 SWAP2 MSTORE DUP2 KECCAK256 DUP1 SLOAD SWAP2 PUSH2 0x501 DUP4 PUSH2 0x85A JUMP JUMPDEST SWAP1 SWAP2 SSTORE POP POP CALLER PUSH1 0x0 SWAP1 DUP2 MSTORE PUSH1 0x6 DUP3 ADD PUSH1 0x20 MSTORE PUSH1 0x40 DUP2 KECCAK256 DUP1 SLOAD SWAP2 PUSH2 0x523 DUP4 PUSH2 0x85A JUMP JUMPDEST SWAP2 SWAP1 POP SSTORE POP POP POP POP JUMP JUMPDEST PUSH1 0x0 DUP2 DUP2 MSTORE PUSH32 0x3E1203F9E3017E885F293B2817C8CF13C3F1A69D3FB206A868B5D52AD69AC941 PUSH1 0x20 MSTORE PUSH1 0x40 SWAP1 KECCAK256 SLOAD PUSH1 0x1 PUSH1 0x1 PUSH1 0xA0 SHL SUB DUP4 DUP2 AND SWAP2 AND EQ PUSH2 0x101 JUMPI PUSH1 0x40 MLOAD PUSH4 0x306E2D5 PUSH1 0xE3 SHL DUP2 MSTORE PUSH1 0x4 ADD PUSH1 0x40 MLOAD DUP1 SWAP2 SUB SWAP1 REVERT JUMPDEST PUSH1 0x0 DUP2 DUP2 MSTORE PUSH32 0x3E1203F9E3017E885F293B2817C8CF13C3F1A69D3FB206A868B5D52AD69AC940 PUSH1 0x20 MSTORE PUSH1 0x40 SWAP1 KECCAK256 SLOAD PUSH1 0xFF AND PUSH2 0xDB JUMPI PUSH1 0x40 MLOAD PUSH4 0x3C1C65A1 PUSH1 0xE2 SHL DUP2 MSTORE PUSH1 0x4 ADD PUSH1 0x40 MLOAD DUP1 SWAP2 SUB SWAP1 REVERT JUMPDEST DUP3 DUP1 SLOAD PUSH2 0x5E0 SWAP1 PUSH2 0x80A JUMP JUMPDEST SWAP1 PUSH1 0x0 MSTORE PUSH1 0x20 PUSH1 0x0 KECCAK256 SWAP1 PUSH1 0x1F ADD PUSH1 0x20 SWAP1 DIV DUP2 ADD SWAP3 DUP3 PUSH2 0x602 JUMPI PUSH1 0x0 DUP6 SSTORE PUSH2 0x648 JUMP JUMPDEST DUP3 PUSH1 0x1F LT PUSH2 0x61B JUMPI DUP1 MLOAD PUSH1 0xFF NOT AND DUP4 DUP1 ADD OR DUP6 SSTORE PUSH2 0x648 JUMP JUMPDEST DUP3 DUP1 ADD PUSH1 0x1 ADD DUP6 SSTORE DUP3 ISZERO PUSH2 0x648 JUMPI SWAP2 DUP3 ADD JUMPDEST DUP3 DUP2 GT ISZERO PUSH2 0x648 JUMPI DUP3 MLOAD DUP3 SSTORE SWAP2 PUSH1 0x20 ADD SWAP2 SWAP1 PUSH1 0x1 ADD SWAP1 PUSH2 0x62D JUMP JUMPDEST POP PUSH2 0x654 SWAP3 SWAP2 POP PUSH2 0x658 JUMP JUMPDEST POP SWAP1 JUMP JUMPDEST JUMPDEST DUP1 DUP3 GT ISZERO PUSH2 0x654 JUMPI PUSH1 0x0 DUP2 SSTORE PUSH1 0x1 ADD PUSH2 0x659 JUMP JUMPDEST PUSH4 0x4E487B71 PUSH1 0xE0 SHL PUSH1 0x0 MSTORE PUSH1 0x41 PUSH1 0x4 MSTORE PUSH1 0x24 PUSH1 0x0 REVERT JUMPDEST PUSH1 0x0 PUSH1 0x20 DUP3 DUP5 SUB SLT ISZERO PUSH2 0x695 JUMPI PUSH1 0x0 DUP1 REVERT JUMPDEST DUP2 CALLDATALOAD PUSH8 0xFFFFFFFFFFFFFFFF DUP1 DUP3 GT ISZERO PUSH2 0x6AD JUMPI PUSH1 0x0 DUP1 REVERT JUMPDEST DUP2 DUP5 ADD SWAP2 POP DUP5 PUSH1 0x1F DUP4 ADD SLT PUSH2 0x6C1 JUMPI PUSH1 0x0 DUP1 REVERT JUMPDEST DUP2 CALLDATALOAD DUP2 DUP2 GT ISZERO PUSH2 0x6D3 JUMPI PUSH2 0x6D3 PUSH2 0x66D JUMP JUMPDEST PUSH1 0x40 MLOAD PUSH1 0x1F DUP3 ADD PUSH1 0x1F NOT SWAP1 DUP2 AND PUSH1 0x3F ADD AND DUP2 ADD SWAP1 DUP4 DUP3 GT DUP2 DUP4 LT OR ISZERO PUSH2 0x6FB JUMPI PUSH2 0x6FB PUSH2 0x66D JUMP JUMPDEST DUP2 PUSH1 0x40 MSTORE DUP3 DUP2 MSTORE DUP8 PUSH1 0x20 DUP5 DUP8 ADD ADD GT ISZERO PUSH2 0x714 JUMPI PUSH1 0x0 DUP1 REVERT JUMPDEST DUP3 PUSH1 0x20 DUP7 ADD PUSH1 0x20 DUP4 ADD CALLDATACOPY PUSH1 0x0 SWAP3 DUP2 ADD PUSH1 0x20 ADD SWAP3 SWAP1 SWAP3 MSTORE POP SWAP6 SWAP5 POP POP POP POP POP JUMP JUMPDEST PUSH1 0x0 PUSH1 0x20 DUP1 DUP4 ADD DUP2 DUP5 MSTORE DUP1 DUP6 MLOAD DUP1 DUP4 MSTORE PUSH1 0x40 DUP7 ADD SWAP2 POP PUSH1 0x40 DUP2 PUSH1 0x5 SHL DUP8 ADD ADD SWAP3 POP DUP4 DUP8 ADD PUSH1 0x0 DUP1 JUMPDEST DUP4 DUP2 LT ISZERO PUSH2 0x7C1 JUMPI DUP9 DUP7 SUB PUSH1 0x3F NOT ADD DUP6 MSTORE DUP3 MLOAD DUP1 MLOAD DUP1 DUP9 MSTORE DUP4 JUMPDEST DUP2 DUP2 LT ISZERO PUSH2 0x791 JUMPI DUP3 DUP2 ADD DUP11 ADD MLOAD DUP10 DUP3 ADD DUP12 ADD MSTORE DUP10 ADD PUSH2 0x776 JUMP JUMPDEST DUP2 DUP2 GT ISZERO PUSH2 0x7A1 JUMPI DUP5 DUP11 DUP4 DUP12 ADD ADD MSTORE JUMPDEST POP PUSH1 0x1F ADD PUSH1 0x1F NOT AND SWAP7 SWAP1 SWAP7 ADD DUP8 ADD SWAP6 POP SWAP4 DUP7 ADD SWAP4 SWAP2 DUP7 ADD SWAP2 PUSH1 0x1 ADD PUSH2 0x75C JUMP JUMPDEST POP SWAP4 SWAP9 SWAP8 POP POP POP POP POP POP POP POP JUMP JUMPDEST PUSH1 0x0 DUP1 PUSH1 0x40 DUP4 DUP6 SUB SLT ISZERO PUSH2 0x7E2 JUMPI PUSH1 0x0 DUP1 REVERT JUMPDEST POP POP DUP1 CALLDATALOAD SWAP3 PUSH1 0x20 SWAP1 SWAP2 ADD CALLDATALOAD SWAP2 POP JUMP JUMPDEST PUSH1 0x0 PUSH1 0x20 DUP3 DUP5 SUB SLT ISZERO PUSH2 0x803 JUMPI PUSH1 0x0 DUP1 REVERT JUMPDEST POP CALLDATALOAD SWAP2 SWAP1 POP JUMP JUMPDEST PUSH1 0x1 DUP2 DUP2 SHR SWAP1 DUP3 AND DUP1 PUSH2 0x81E JUMPI PUSH1 0x7F DUP3 AND SWAP2 POP JUMPDEST PUSH1 0x20 DUP3 LT DUP2 SUB PUSH2 0x83E JUMPI PUSH4 0x4E487B71 PUSH1 0xE0 SHL PUSH1 0x0 MSTORE PUSH1 0x22 PUSH1 0x4 MSTORE PUSH1 0x24 PUSH1 0x0 REVERT JUMPDEST POP SWAP2 SWAP1 POP JUMP JUMPDEST PUSH4 0x4E487B71 PUSH1 0xE0 SHL PUSH1 0x0 MSTORE PUSH1 0x32 PUSH1 0x4 MSTORE PUSH1 0x24 PUSH1 0x0 REVERT JUMPDEST PUSH1 0x0 PUSH1 0x1 DUP3 ADD PUSH2 0x87A JUMPI PUSH4 0x4E487B71 PUSH1 0xE0 SHL PUSH1 0x0 MSTORE PUSH1 0x11 PUSH1 0x4 MSTORE PUSH1 0x24 PUSH1 0x0 REVERT JUMPDEST POP PUSH1 0x1 ADD SWAP1 JUMP INVALID LOG2 PUSH5 0x6970667358 0x22 SLT KECCAK256 CALLCODE 0xD4 0xC6 0xAD MLOAD PUSH25 0x218403CB2362E675AE31C30549A29BAEEAF3AEC79D194CF168 ADDRESS PUSH5 0x736F6C6343 STOP ADDMOD 0xD STOP CALLER "
        },
        "gasEstimates": {
          "creation": {
            "codeDepositCost": "446200",
            "executionCost": "480",
            "totalCost": "446680"
          },
          "external": {
            "addAlcohol(string)": "infinite",
            "buyAlcohol(uint256,uint256)": "infinite",
            "getBeerStoreItems()": "infinite",
            "setMinAge(uint256)": "22356"
          }
        },
        "methodIdentifiers": {
          "addAlcohol(string)": "0d66b8e8",
          "buyAlcohol(uint256,uint256)": "c677efc2",
          "getBeerStoreItems()": "bdd33bf0",
          "setMinAge(uint256)": "d34ff9c3"
        }
      },
      "storageLayout": {
        "storage": [],
        "types": null
      },
      "userdoc": {
        "kind": "user",
        "methods": {},
        "version": 1
      }
    }
  }
}