{
  "contracts/PoC/facets/StoreBaseFacet.sol": {
    "StoreBaseFacet": {
      "abi": [
        {
          "inputs": [],
          "name": "getAddr",
          "outputs": [
            {
              "internalType": "address",
              "name": "myAddr",
              "type": "address"
            }
          ],
          "stateMutability": "view",
          "type": "function"
        },
        {
          "inputs": [],
          "name": "getItemCount",
          "outputs": [
            {
              "internalType": "uint256",
              "name": "count",
              "type": "uint256"
            }
          ],
          "stateMutability": "view",
          "type": "function"
        },
        {
          "inputs": [],
          "name": "getItems",
          "outputs": [
            {
              "internalType": "string[]",
              "name": "itemList",
              "type": "string[]"
            }
          ],
          "stateMutability": "view",
          "type": "function"
        },
        {
          "inputs": [
            {
              "internalType": "address",
              "name": "_customer",
              "type": "address"
            },
            {
              "internalType": "uint256",
              "name": "_idx",
              "type": "uint256"
            }
          ],
          "name": "getItemsSoldToUser",
          "outputs": [
            {
              "internalType": "uint256",
              "name": "itemCount",
              "type": "uint256"
            }
          ],
          "stateMutability": "view",
          "type": "function"
        },
        {
          "inputs": [
            {
              "internalType": "uint256",
              "name": "_idx",
              "type": "uint256"
            }
          ],
          "name": "getSalesPerItem",
          "outputs": [
            {
              "internalType": "uint256",
              "name": "itemCount",
              "type": "uint256"
            }
          ],
          "stateMutability": "view",
          "type": "function"
        }
      ],
      "devdoc": {
        "kind": "dev",
        "methods": {},
        "version": 1
      },
      "evm": {
        "bytecode": {
          "linkReferences": {},
          "object": "608060405234801561001057600080fd5b506104cb806100206000396000f3fe608060405234801561001057600080fd5b50600436106100575760003560e01c8063199513c11461005c578063410d59cc146100ae5780637749cf23146100c3578063a74c2bb6146100cb578063c4a03f59146100d9575b600080fd5b61009b61006a36600461031c565b60009081527f3e1203f9e3017e885f293b2817c8cf13c3f1a69d3fb206a868b5d52ad69ac942602052604090205490565b6040519081526020015b60405180910390f35b6100b661012e565b6040516100a59190610335565b61009b61013f565b6040513081526020016100a5565b61009b6100e73660046103d0565b6001600160a01b039190911660009081527f3e1203f9e3017e885f293b2817c8cf13c3f1a69d3fb206a868b5d52ad69ac94360209081526040808320938352929052205490565b606061013a6000610169565b905090565b600061013a7f3e1203f9e3017e885f293b2817c8cf13c3f1a69d3fb206a868b5d52ad69ac93e5490565b7f3e1203f9e3017e885f293b2817c8cf13c3f1a69d3fb206a868b5d52ad69ac93e8054606091908067ffffffffffffffff8111156101a9576101a9610408565b6040519080825280602002602001820160405280156101dc57816020015b60608152602001906001900390816101c75790505b509250600060015b828111610313576001600160a01b03861615806102375750600081815260028501602052604090205460ff168015610237575060008181526003850160205260409020546001600160a01b038781169116145b15610301576000818152600185016020526040902080546102579061041e565b80601f01602080910402602001604051908101604052809291908181526020018280546102839061041e565b80156102d05780601f106102a5576101008083540402835291602001916102d0565b820191906000526020600020905b8154815290600101906020018083116102b357829003601f168201915b50505050508583815181106102e7576102e7610458565b602002602001018190525081806102fd9061046e565b9250505b8061030b8161046e565b9150506101e4565b50505050919050565b60006020828403121561032e57600080fd5b5035919050565b6000602080830181845280855180835260408601915060408160051b87010192508387016000805b838110156103c257888603603f1901855282518051808852835b81811015610392578281018a01518982018b01528901610377565b818111156103a257848a838b0101525b50601f01601f19169690960187019550938601939186019160010161035d565b509398975050505050505050565b600080604083850312156103e357600080fd5b82356001600160a01b03811681146103fa57600080fd5b946020939093013593505050565b634e487b7160e01b600052604160045260246000fd5b600181811c9082168061043257607f821691505b60208210810361045257634e487b7160e01b600052602260045260246000fd5b50919050565b634e487b7160e01b600052603260045260246000fd5b60006001820161048e57634e487b7160e01b600052601160045260246000fd5b506001019056fea2646970667358221220db641592bdc264fbe17937a1409069660005655f5f2248b10d95aaae6a40f5b764736f6c634300080d0033",
          "opcodes": "PUSH1 0x80 PUSH1 0x40 MSTORE CALLVALUE DUP1 ISZERO PUSH2 0x10 JUMPI PUSH1 0x0 DUP1 REVERT JUMPDEST POP PUSH2 0x4CB DUP1 PUSH2 0x20 PUSH1 0x0 CODECOPY PUSH1 0x0 RETURN INVALID PUSH1 0x80 PUSH1 0x40 MSTORE CALLVALUE DUP1 ISZERO PUSH2 0x10 JUMPI PUSH1 0x0 DUP1 REVERT JUMPDEST POP PUSH1 0x4 CALLDATASIZE LT PUSH2 0x57 JUMPI PUSH1 0x0 CALLDATALOAD PUSH1 0xE0 SHR DUP1 PUSH4 0x199513C1 EQ PUSH2 0x5C JUMPI DUP1 PUSH4 0x410D59CC EQ PUSH2 0xAE JUMPI DUP1 PUSH4 0x7749CF23 EQ PUSH2 0xC3 JUMPI DUP1 PUSH4 0xA74C2BB6 EQ PUSH2 0xCB JUMPI DUP1 PUSH4 0xC4A03F59 EQ PUSH2 0xD9 JUMPI JUMPDEST PUSH1 0x0 DUP1 REVERT JUMPDEST PUSH2 0x9B PUSH2 0x6A CALLDATASIZE PUSH1 0x4 PUSH2 0x31C JUMP JUMPDEST PUSH1 0x0 SWAP1 DUP2 MSTORE PUSH32 0x3E1203F9E3017E885F293B2817C8CF13C3F1A69D3FB206A868B5D52AD69AC942 PUSH1 0x20 MSTORE PUSH1 0x40 SWAP1 KECCAK256 SLOAD SWAP1 JUMP JUMPDEST PUSH1 0x40 MLOAD SWAP1 DUP2 MSTORE PUSH1 0x20 ADD JUMPDEST PUSH1 0x40 MLOAD DUP1 SWAP2 SUB SWAP1 RETURN JUMPDEST PUSH2 0xB6 PUSH2 0x12E JUMP JUMPDEST PUSH1 0x40 MLOAD PUSH2 0xA5 SWAP2 SWAP1 PUSH2 0x335 JUMP JUMPDEST PUSH2 0x9B PUSH2 0x13F JUMP JUMPDEST PUSH1 0x40 MLOAD ADDRESS DUP2 MSTORE PUSH1 0x20 ADD PUSH2 0xA5 JUMP JUMPDEST PUSH2 0x9B PUSH2 0xE7 CALLDATASIZE PUSH1 0x4 PUSH2 0x3D0 JUMP JUMPDEST PUSH1 0x1 PUSH1 0x1 PUSH1 0xA0 SHL SUB SWAP2 SWAP1 SWAP2 AND PUSH1 0x0 SWAP1 DUP2 MSTORE PUSH32 0x3E1203F9E3017E885F293B2817C8CF13C3F1A69D3FB206A868B5D52AD69AC943 PUSH1 0x20 SWAP1 DUP2 MSTORE PUSH1 0x40 DUP1 DUP4 KECCAK256 SWAP4 DUP4 MSTORE SWAP3 SWAP1 MSTORE KECCAK256 SLOAD SWAP1 JUMP JUMPDEST PUSH1 0x60 PUSH2 0x13A PUSH1 0x0 PUSH2 0x169 JUMP JUMPDEST SWAP1 POP SWAP1 JUMP JUMPDEST PUSH1 0x0 PUSH2 0x13A PUSH32 0x3E1203F9E3017E885F293B2817C8CF13C3F1A69D3FB206A868B5D52AD69AC93E SLOAD SWAP1 JUMP JUMPDEST PUSH32 0x3E1203F9E3017E885F293B2817C8CF13C3F1A69D3FB206A868B5D52AD69AC93E DUP1 SLOAD PUSH1 0x60 SWAP2 SWAP1 DUP1 PUSH8 0xFFFFFFFFFFFFFFFF DUP2 GT ISZERO PUSH2 0x1A9 JUMPI PUSH2 0x1A9 PUSH2 0x408 JUMP JUMPDEST PUSH1 0x40 MLOAD SWAP1 DUP1 DUP3 MSTORE DUP1 PUSH1 0x20 MUL PUSH1 0x20 ADD DUP3 ADD PUSH1 0x40 MSTORE DUP1 ISZERO PUSH2 0x1DC JUMPI DUP2 PUSH1 0x20 ADD JUMPDEST PUSH1 0x60 DUP2 MSTORE PUSH1 0x20 ADD SWAP1 PUSH1 0x1 SWAP1 SUB SWAP1 DUP2 PUSH2 0x1C7 JUMPI SWAP1 POP JUMPDEST POP SWAP3 POP PUSH1 0x0 PUSH1 0x1 JUMPDEST DUP3 DUP2 GT PUSH2 0x313 JUMPI PUSH1 0x1 PUSH1 0x1 PUSH1 0xA0 SHL SUB DUP7 AND ISZERO DUP1 PUSH2 0x237 JUMPI POP PUSH1 0x0 DUP2 DUP2 MSTORE PUSH1 0x2 DUP6 ADD PUSH1 0x20 MSTORE PUSH1 0x40 SWAP1 KECCAK256 SLOAD PUSH1 0xFF AND DUP1 ISZERO PUSH2 0x237 JUMPI POP PUSH1 0x0 DUP2 DUP2 MSTORE PUSH1 0x3 DUP6 ADD PUSH1 0x20 MSTORE PUSH1 0x40 SWAP1 KECCAK256 SLOAD PUSH1 0x1 PUSH1 0x1 PUSH1 0xA0 SHL SUB DUP8 DUP2 AND SWAP2 AND EQ JUMPDEST ISZERO PUSH2 0x301 JUMPI PUSH1 0x0 DUP2 DUP2 MSTORE PUSH1 0x1 DUP6 ADD PUSH1 0x20 MSTORE PUSH1 0x40 SWAP1 KECCAK256 DUP1 SLOAD PUSH2 0x257 SWAP1 PUSH2 0x41E JUMP JUMPDEST DUP1 PUSH1 0x1F ADD PUSH1 0x20 DUP1 SWAP2 DIV MUL PUSH1 0x20 ADD PUSH1 0x40 MLOAD SWAP1 DUP2 ADD PUSH1 0x40 MSTORE DUP1 SWAP3 SWAP2 SWAP1 DUP2 DUP2 MSTORE PUSH1 0x20 ADD DUP3 DUP1 SLOAD PUSH2 0x283 SWAP1 PUSH2 0x41E JUMP JUMPDEST DUP1 ISZERO PUSH2 0x2D0 JUMPI DUP1 PUSH1 0x1F LT PUSH2 0x2A5 JUMPI PUSH2 0x100 DUP1 DUP4 SLOAD DIV MUL DUP4 MSTORE SWAP2 PUSH1 0x20 ADD SWAP2 PUSH2 0x2D0 JUMP JUMPDEST DUP3 ADD SWAP2 SWAP1 PUSH1 0x0 MSTORE PUSH1 0x20 PUSH1 0x0 KECCAK256 SWAP1 JUMPDEST DUP2 SLOAD DUP2 MSTORE SWAP1 PUSH1 0x1 ADD SWAP1 PUSH1 0x20 ADD DUP1 DUP4 GT PUSH2 0x2B3 JUMPI DUP3 SWAP1 SUB PUSH1 0x1F AND DUP3 ADD SWAP2 JUMPDEST POP POP POP POP POP DUP6 DUP4 DUP2 MLOAD DUP2 LT PUSH2 0x2E7 JUMPI PUSH2 0x2E7 PUSH2 0x458 JUMP JUMPDEST PUSH1 0x20 MUL PUSH1 0x20 ADD ADD DUP2 SWAP1 MSTORE POP DUP2 DUP1 PUSH2 0x2FD SWAP1 PUSH2 0x46E JUMP JUMPDEST SWAP3 POP POP JUMPDEST DUP1 PUSH2 0x30B DUP2 PUSH2 0x46E JUMP JUMPDEST SWAP2 POP POP PUSH2 0x1E4 JUMP JUMPDEST POP POP POP POP SWAP2 SWAP1 POP JUMP JUMPDEST PUSH1 0x0 PUSH1 0x20 DUP3 DUP5 SUB SLT ISZERO PUSH2 0x32E JUMPI PUSH1 0x0 DUP1 REVERT JUMPDEST POP CALLDATALOAD SWAP2 SWAP1 POP JUMP JUMPDEST PUSH1 0x0 PUSH1 0x20 DUP1 DUP4 ADD DUP2 DUP5 MSTORE DUP1 DUP6 MLOAD DUP1 DUP4 MSTORE PUSH1 0x40 DUP7 ADD SWAP2 POP PUSH1 0x40 DUP2 PUSH1 0x5 SHL DUP8 ADD ADD SWAP3 POP DUP4 DUP8 ADD PUSH1 0x0 DUP1 JUMPDEST DUP4 DUP2 LT ISZERO PUSH2 0x3C2 JUMPI DUP9 DUP7 SUB PUSH1 0x3F NOT ADD DUP6 MSTORE DUP3 MLOAD DUP1 MLOAD DUP1 DUP9 MSTORE DUP4 JUMPDEST DUP2 DUP2 LT ISZERO PUSH2 0x392 JUMPI DUP3 DUP2 ADD DUP11 ADD MLOAD DUP10 DUP3 ADD DUP12 ADD MSTORE DUP10 ADD PUSH2 0x377 JUMP JUMPDEST DUP2 DUP2 GT ISZERO PUSH2 0x3A2 JUMPI DUP5 DUP11 DUP4 DUP12 ADD ADD MSTORE JUMPDEST POP PUSH1 0x1F ADD PUSH1 0x1F NOT AND SWAP7 SWAP1 SWAP7 ADD DUP8 ADD SWAP6 POP SWAP4 DUP7 ADD SWAP4 SWAP2 DUP7 ADD SWAP2 PUSH1 0x1 ADD PUSH2 0x35D JUMP JUMPDEST POP SWAP4 SWAP9 SWAP8 POP POP POP POP POP POP POP POP JUMP JUMPDEST PUSH1 0x0 DUP1 PUSH1 0x40 DUP4 DUP6 SUB SLT ISZERO PUSH2 0x3E3 JUMPI PUSH1 0x0 DUP1 REVERT JUMPDEST DUP3 CALLDATALOAD PUSH1 0x1 PUSH1 0x1 PUSH1 0xA0 SHL SUB DUP2 AND DUP2 EQ PUSH2 0x3FA JUMPI PUSH1 0x0 DUP1 REVERT JUMPDEST SWAP5 PUSH1 0x20 SWAP4 SWAP1 SWAP4 ADD CALLDATALOAD SWAP4 POP POP POP JUMP JUMPDEST PUSH4 0x4E487B71 PUSH1 0xE0 SHL PUSH1 0x0 MSTORE PUSH1 0x41 PUSH1 0x4 MSTORE PUSH1 0x24 PUSH1 0x0 REVERT JUMPDEST PUSH1 0x1 DUP2 DUP2 SHR SWAP1 DUP3 AND DUP1 PUSH2 0x432 JUMPI PUSH1 0x7F DUP3 AND SWAP2 POP JUMPDEST PUSH1 0x20 DUP3 LT DUP2 SUB PUSH2 0x452 JUMPI PUSH4 0x4E487B71 PUSH1 0xE0 SHL PUSH1 0x0 MSTORE PUSH1 0x22 PUSH1 0x4 MSTORE PUSH1 0x24 PUSH1 0x0 REVERT JUMPDEST POP SWAP2 SWAP1 POP JUMP JUMPDEST PUSH4 0x4E487B71 PUSH1 0xE0 SHL PUSH1 0x0 MSTORE PUSH1 0x32 PUSH1 0x4 MSTORE PUSH1 0x24 PUSH1 0x0 REVERT JUMPDEST PUSH1 0x0 PUSH1 0x1 DUP3 ADD PUSH2 0x48E JUMPI PUSH4 0x4E487B71 PUSH1 0xE0 SHL PUSH1 0x0 MSTORE PUSH1 0x11 PUSH1 0x4 MSTORE PUSH1 0x24 PUSH1 0x0 REVERT JUMPDEST POP PUSH1 0x1 ADD SWAP1 JUMP INVALID LOG2 PUSH5 0x6970667358 0x22 SLT KECCAK256 0xDB PUSH5 0x1592BDC264 0xFB 0xE1 PUSH26 0x37A1409069660005655F5F2248B10D95AAAE6A40F5B764736F6C PUSH4 0x4300080D STOP CALLER "
        },
        "gasEstimates": {
          "creation": {
            "codeDepositCost": "245400",
            "executionCost": "287",
            "totalCost": "245687"
          },
          "external": {
            "getAddr()": "220",
            "getItemCount()": "2341",
            "getItems()": "infinite",
            "getItemsSoldToUser(address,uint256)": "2656",
            "getSalesPerItem(uint256)": "2405"
          }
        },
        "methodIdentifiers": {
          "getAddr()": "a74c2bb6",
          "getItemCount()": "7749cf23",
          "getItems()": "410d59cc",
          "getItemsSoldToUser(address,uint256)": "c4a03f59",
          "getSalesPerItem(uint256)": "199513c1"
        }
      },
      "storageLayout": {
        "storage": [],
        "types": null
      },
      "userdoc": {
        "kind": "user",
        "methods": {},
        "version": 1
      }
    }
  }
}