{
  "contracts/PoC/facets/PharmacyWineFacet.sol": {
    "PharmacyWineFacet": {
      "abi": [
        {
          "inputs": [],
          "name": "ItemNotAvailable",
          "type": "error"
        },
        {
          "inputs": [],
          "name": "ItemNotSoldAtStore",
          "type": "error"
        },
        {
          "inputs": [
            {
              "internalType": "address",
              "name": "_user",
              "type": "address"
            },
            {
              "internalType": "address",
              "name": "_contractOwner",
              "type": "address"
            }
          ],
          "name": "NotContractOwner",
          "type": "error"
        },
        {
          "inputs": [],
          "name": "UnderageCustomer",
          "type": "error"
        },
        {
          "inputs": [],
          "name": "UnderageCustomer",
          "type": "error"
        },
        {
          "anonymous": false,
          "inputs": [
            {
              "indexed": false,
              "internalType": "uint256",
              "name": "idx",
              "type": "uint256"
            },
            {
              "indexed": false,
              "internalType": "string",
              "name": "name",
              "type": "string"
            }
          ],
          "name": "AlcoholAdded",
          "type": "event"
        },
        {
          "inputs": [
            {
              "internalType": "string",
              "name": "_newBeer",
              "type": "string"
            }
          ],
          "name": "addAlcohol",
          "outputs": [],
          "stateMutability": "nonpayable",
          "type": "function"
        },
        {
          "inputs": [
            {
              "internalType": "string",
              "name": "_newMedicine",
              "type": "string"
            }
          ],
          "name": "addMedicine",
          "outputs": [],
          "stateMutability": "nonpayable",
          "type": "function"
        },
        {
          "inputs": [
            {
              "internalType": "uint256",
              "name": "_idx",
              "type": "uint256"
            },
            {
              "internalType": "uint256",
              "name": "age",
              "type": "uint256"
            }
          ],
          "name": "buyAlcohol",
          "outputs": [],
          "stateMutability": "nonpayable",
          "type": "function"
        },
        {
          "inputs": [
            {
              "internalType": "uint256",
              "name": "_idx",
              "type": "uint256"
            },
            {
              "internalType": "bool",
              "name": "hasPrescription",
              "type": "bool"
            }
          ],
          "name": "buyMedicine",
          "outputs": [],
          "stateMutability": "nonpayable",
          "type": "function"
        },
        {
          "inputs": [],
          "name": "getBeerStoreItems",
          "outputs": [
            {
              "internalType": "string[]",
              "name": "itemList",
              "type": "string[]"
            }
          ],
          "stateMutability": "view",
          "type": "function"
        },
        {
          "inputs": [
            {
              "internalType": "uint256",
              "name": "_minAge",
              "type": "uint256"
            }
          ],
          "name": "setMinAge",
          "outputs": [],
          "stateMutability": "nonpayable",
          "type": "function"
        }
      ],
      "devdoc": {
        "kind": "dev",
        "methods": {},
        "version": 1
      },
      "evm": {
        "bytecode": {
          "linkReferences": {},
          "object": "608060405234801561001057600080fd5b5061096b806100206000396000f3fe608060405234801561001057600080fd5b50600436106100625760003560e01c80630d66b8e814610067578063108befb51461007c57806360234f1014610067578063bdd33bf01461008f578063c677efc2146100ad578063d34ff9c3146100c0575b600080fd5b61007a610075366004610702565b6100f2565b005b61007a61008a3660046107b3565b610107565b61009761011e565b6040516100a491906107e8565b60405180910390f35b61007a6100bb366004610883565b61012e565b61007a6100ce3660046108a5565b7ff352ba126091b494126fef2892c8da20801fd26146bd0cb5611cfe00f6dc924a55565b6100fa610137565b61010481306101c1565b50565b610110816102a1565b61011a82306102ee565b5050565b6060610129306103b7565b905090565b6101108161056a565b7fc8fcad8db84d3cc18b4c41d551ea0ee66dd599cde068d998e57d5e09332c131c600301546001600160a01b031633146101bf577fc8fcad8db84d3cc18b4c41d551ea0ee66dd599cde068d998e57d5e09332c131f5460408051600162bed83560e01b031981523360048201526001600160a01b039092166024830152519081900360440190fd5b565b7f3e1203f9e3017e885f293b2817c8cf13c3f1a69d3fb206a868b5d52ad69ac93e805460010180825560009081527f3e1203f9e3017e885f293b2817c8cf13c3f1a69d3fb206a868b5d52ad69ac93f60209081526040909120845161022892860190610653565b5081600382016000610238845490565b815260200190815260200160002060006101000a8154816001600160a01b0302191690836001600160a01b03160217905550600181600201600061027d846000015490565b81526020810191909152604001600020805460ff1916911515919091179055505050565b7ff352ba126091b494126fef2892c8da20801fd26146bd0cb5611cfe00f6dc924a5460ff1680156102d0575080155b15610104576040516302e3d90b60e01b815260040160405180910390fd5b6102f881836105ac565b61030182610605565b60008281527f3e1203f9e3017e885f293b2817c8cf13c3f1a69d3fb206a868b5d52ad69ac9426020526040812080547f3e1203f9e3017e885f293b2817c8cf13c3f1a69d3fb206a868b5d52ad69ac93e9290919061035e836108be565b90915550503360009081526005820160209081526040808320868452909152812080549161038b836108be565b909155505033600090815260068201602052604081208054916103ad836108be565b9190505550505050565b7f3e1203f9e3017e885f293b2817c8cf13c3f1a69d3fb206a868b5d52ad69ac93e8054606091908067ffffffffffffffff8111156103f7576103f76106ec565b60405190808252806020026020018201604052801561042a57816020015b60608152602001906001900390816104155790505b509250600060015b828111610561576001600160a01b03861615806104855750600081815260028501602052604090205460ff168015610485575060008181526003850160205260409020546001600160a01b038781169116145b1561054f576000818152600185016020526040902080546104a5906108e5565b80601f01602080910402602001604051908101604052809291908181526020018280546104d1906108e5565b801561051e5780601f106104f35761010080835404028352916020019161051e565b820191906000526020600020905b81548152906001019060200180831161050157829003601f168201915b50505050508583815181106105355761053561091f565b6020026020010181905250818061054b906108be565b9250505b80610559816108be565b915050610432565b50505050919050565b7ff352ba126091b494126fef2892c8da20801fd26146bd0cb5611cfe00f6dc924a54811015610104576040516302e3d90b60e01b815260040160405180910390fd5b60008181527f3e1203f9e3017e885f293b2817c8cf13c3f1a69d3fb206a868b5d52ad69ac94160205260409020546001600160a01b0383811691161461011a57604051630306e2d560e31b815260040160405180910390fd5b60008181527f3e1203f9e3017e885f293b2817c8cf13c3f1a69d3fb206a868b5d52ad69ac940602052604090205460ff1661010457604051633c1c65a160e21b815260040160405180910390fd5b82805461065f906108e5565b90600052602060002090601f01602090048101928261068157600085556106c7565b82601f1061069a57805160ff19168380011785556106c7565b828001600101855582156106c7579182015b828111156106c75782518255916020019190600101906106ac565b506106d39291506106d7565b5090565b5b808211156106d357600081556001016106d8565b634e487b7160e01b600052604160045260246000fd5b60006020828403121561071457600080fd5b813567ffffffffffffffff8082111561072c57600080fd5b818401915084601f83011261074057600080fd5b813581811115610752576107526106ec565b604051601f8201601f19908116603f0116810190838211818310171561077a5761077a6106ec565b8160405282815287602084870101111561079357600080fd5b826020860160208301376000928101602001929092525095945050505050565b600080604083850312156107c657600080fd5b82359150602083013580151581146107dd57600080fd5b809150509250929050565b6000602080830181845280855180835260408601915060408160051b87010192508387016000805b8381101561087557888603603f1901855282518051808852835b81811015610845578281018a01518982018b0152890161082a565b8181111561085557848a838b0101525b50601f01601f191696909601870195509386019391860191600101610810565b509398975050505050505050565b6000806040838503121561089657600080fd5b50508035926020909101359150565b6000602082840312156108b757600080fd5b5035919050565b6000600182016108de57634e487b7160e01b600052601160045260246000fd5b5060010190565b600181811c908216806108f957607f821691505b60208210810361091957634e487b7160e01b600052602260045260246000fd5b50919050565b634e487b7160e01b600052603260045260246000fdfea2646970667358221220ff8074ec3efa3bf6cbcac33b82c4aca824c1526174387a1afde7a65f94a69adf64736f6c634300080d0033",
          "opcodes": "PUSH1 0x80 PUSH1 0x40 MSTORE CALLVALUE DUP1 ISZERO PUSH2 0x10 JUMPI PUSH1 0x0 DUP1 REVERT JUMPDEST POP PUSH2 0x96B DUP1 PUSH2 0x20 PUSH1 0x0 CODECOPY PUSH1 0x0 RETURN INVALID PUSH1 0x80 PUSH1 0x40 MSTORE CALLVALUE DUP1 ISZERO PUSH2 0x10 JUMPI PUSH1 0x0 DUP1 REVERT JUMPDEST POP PUSH1 0x4 CALLDATASIZE LT PUSH2 0x62 JUMPI PUSH1 0x0 CALLDATALOAD PUSH1 0xE0 SHR DUP1 PUSH4 0xD66B8E8 EQ PUSH2 0x67 JUMPI DUP1 PUSH4 0x108BEFB5 EQ PUSH2 0x7C JUMPI DUP1 PUSH4 0x60234F10 EQ PUSH2 0x67 JUMPI DUP1 PUSH4 0xBDD33BF0 EQ PUSH2 0x8F JUMPI DUP1 PUSH4 0xC677EFC2 EQ PUSH2 0xAD JUMPI DUP1 PUSH4 0xD34FF9C3 EQ PUSH2 0xC0 JUMPI JUMPDEST PUSH1 0x0 DUP1 REVERT JUMPDEST PUSH2 0x7A PUSH2 0x75 CALLDATASIZE PUSH1 0x4 PUSH2 0x702 JUMP JUMPDEST PUSH2 0xF2 JUMP JUMPDEST STOP JUMPDEST PUSH2 0x7A PUSH2 0x8A CALLDATASIZE PUSH1 0x4 PUSH2 0x7B3 JUMP JUMPDEST PUSH2 0x107 JUMP JUMPDEST PUSH2 0x97 PUSH2 0x11E JUMP JUMPDEST PUSH1 0x40 MLOAD PUSH2 0xA4 SWAP2 SWAP1 PUSH2 0x7E8 JUMP JUMPDEST PUSH1 0x40 MLOAD DUP1 SWAP2 SUB SWAP1 RETURN JUMPDEST PUSH2 0x7A PUSH2 0xBB CALLDATASIZE PUSH1 0x4 PUSH2 0x883 JUMP JUMPDEST PUSH2 0x12E JUMP JUMPDEST PUSH2 0x7A PUSH2 0xCE CALLDATASIZE PUSH1 0x4 PUSH2 0x8A5 JUMP JUMPDEST PUSH32 0xF352BA126091B494126FEF2892C8DA20801FD26146BD0CB5611CFE00F6DC924A SSTORE JUMP JUMPDEST PUSH2 0xFA PUSH2 0x137 JUMP JUMPDEST PUSH2 0x104 DUP2 ADDRESS PUSH2 0x1C1 JUMP JUMPDEST POP JUMP JUMPDEST PUSH2 0x110 DUP2 PUSH2 0x2A1 JUMP JUMPDEST PUSH2 0x11A DUP3 ADDRESS PUSH2 0x2EE JUMP JUMPDEST POP POP JUMP JUMPDEST PUSH1 0x60 PUSH2 0x129 ADDRESS PUSH2 0x3B7 JUMP JUMPDEST SWAP1 POP SWAP1 JUMP JUMPDEST PUSH2 0x110 DUP2 PUSH2 0x56A JUMP JUMPDEST PUSH32 0xC8FCAD8DB84D3CC18B4C41D551EA0EE66DD599CDE068D998E57D5E09332C131C PUSH1 0x3 ADD SLOAD PUSH1 0x1 PUSH1 0x1 PUSH1 0xA0 SHL SUB AND CALLER EQ PUSH2 0x1BF JUMPI PUSH32 0xC8FCAD8DB84D3CC18B4C41D551EA0EE66DD599CDE068D998E57D5E09332C131F SLOAD PUSH1 0x40 DUP1 MLOAD PUSH1 0x1 PUSH3 0xBED835 PUSH1 0xE0 SHL SUB NOT DUP2 MSTORE CALLER PUSH1 0x4 DUP3 ADD MSTORE PUSH1 0x1 PUSH1 0x1 PUSH1 0xA0 SHL SUB SWAP1 SWAP3 AND PUSH1 0x24 DUP4 ADD MSTORE MLOAD SWAP1 DUP2 SWAP1 SUB PUSH1 0x44 ADD SWAP1 REVERT JUMPDEST JUMP JUMPDEST PUSH32 0x3E1203F9E3017E885F293B2817C8CF13C3F1A69D3FB206A868B5D52AD69AC93E DUP1 SLOAD PUSH1 0x1 ADD DUP1 DUP3 SSTORE PUSH1 0x0 SWAP1 DUP2 MSTORE PUSH32 0x3E1203F9E3017E885F293B2817C8CF13C3F1A69D3FB206A868B5D52AD69AC93F PUSH1 0x20 SWAP1 DUP2 MSTORE PUSH1 0x40 SWAP1 SWAP2 KECCAK256 DUP5 MLOAD PUSH2 0x228 SWAP3 DUP7 ADD SWAP1 PUSH2 0x653 JUMP JUMPDEST POP DUP2 PUSH1 0x3 DUP3 ADD PUSH1 0x0 PUSH2 0x238 DUP5 SLOAD SWAP1 JUMP JUMPDEST DUP2 MSTORE PUSH1 0x20 ADD SWAP1 DUP2 MSTORE PUSH1 0x20 ADD PUSH1 0x0 KECCAK256 PUSH1 0x0 PUSH2 0x100 EXP DUP2 SLOAD DUP2 PUSH1 0x1 PUSH1 0x1 PUSH1 0xA0 SHL SUB MUL NOT AND SWAP1 DUP4 PUSH1 0x1 PUSH1 0x1 PUSH1 0xA0 SHL SUB AND MUL OR SWAP1 SSTORE POP PUSH1 0x1 DUP2 PUSH1 0x2 ADD PUSH1 0x0 PUSH2 0x27D DUP5 PUSH1 0x0 ADD SLOAD SWAP1 JUMP JUMPDEST DUP2 MSTORE PUSH1 0x20 DUP2 ADD SWAP2 SWAP1 SWAP2 MSTORE PUSH1 0x40 ADD PUSH1 0x0 KECCAK256 DUP1 SLOAD PUSH1 0xFF NOT AND SWAP2 ISZERO ISZERO SWAP2 SWAP1 SWAP2 OR SWAP1 SSTORE POP POP POP JUMP JUMPDEST PUSH32 0xF352BA126091B494126FEF2892C8DA20801FD26146BD0CB5611CFE00F6DC924A SLOAD PUSH1 0xFF AND DUP1 ISZERO PUSH2 0x2D0 JUMPI POP DUP1 ISZERO JUMPDEST ISZERO PUSH2 0x104 JUMPI PUSH1 0x40 MLOAD PUSH4 0x2E3D90B PUSH1 0xE0 SHL DUP2 MSTORE PUSH1 0x4 ADD PUSH1 0x40 MLOAD DUP1 SWAP2 SUB SWAP1 REVERT JUMPDEST PUSH2 0x2F8 DUP2 DUP4 PUSH2 0x5AC JUMP JUMPDEST PUSH2 0x301 DUP3 PUSH2 0x605 JUMP JUMPDEST PUSH1 0x0 DUP3 DUP2 MSTORE PUSH32 0x3E1203F9E3017E885F293B2817C8CF13C3F1A69D3FB206A868B5D52AD69AC942 PUSH1 0x20 MSTORE PUSH1 0x40 DUP2 KECCAK256 DUP1 SLOAD PUSH32 0x3E1203F9E3017E885F293B2817C8CF13C3F1A69D3FB206A868B5D52AD69AC93E SWAP3 SWAP1 SWAP2 SWAP1 PUSH2 0x35E DUP4 PUSH2 0x8BE JUMP JUMPDEST SWAP1 SWAP2 SSTORE POP POP CALLER PUSH1 0x0 SWAP1 DUP2 MSTORE PUSH1 0x5 DUP3 ADD PUSH1 0x20 SWAP1 DUP2 MSTORE PUSH1 0x40 DUP1 DUP4 KECCAK256 DUP7 DUP5 MSTORE SWAP1 SWAP2 MSTORE DUP2 KECCAK256 DUP1 SLOAD SWAP2 PUSH2 0x38B DUP4 PUSH2 0x8BE JUMP JUMPDEST SWAP1 SWAP2 SSTORE POP POP CALLER PUSH1 0x0 SWAP1 DUP2 MSTORE PUSH1 0x6 DUP3 ADD PUSH1 0x20 MSTORE PUSH1 0x40 DUP2 KECCAK256 DUP1 SLOAD SWAP2 PUSH2 0x3AD DUP4 PUSH2 0x8BE JUMP JUMPDEST SWAP2 SWAP1 POP SSTORE POP POP POP POP JUMP JUMPDEST PUSH32 0x3E1203F9E3017E885F293B2817C8CF13C3F1A69D3FB206A868B5D52AD69AC93E DUP1 SLOAD PUSH1 0x60 SWAP2 SWAP1 DUP1 PUSH8 0xFFFFFFFFFFFFFFFF DUP2 GT ISZERO PUSH2 0x3F7 JUMPI PUSH2 0x3F7 PUSH2 0x6EC JUMP JUMPDEST PUSH1 0x40 MLOAD SWAP1 DUP1 DUP3 MSTORE DUP1 PUSH1 0x20 MUL PUSH1 0x20 ADD DUP3 ADD PUSH1 0x40 MSTORE DUP1 ISZERO PUSH2 0x42A JUMPI DUP2 PUSH1 0x20 ADD JUMPDEST PUSH1 0x60 DUP2 MSTORE PUSH1 0x20 ADD SWAP1 PUSH1 0x1 SWAP1 SUB SWAP1 DUP2 PUSH2 0x415 JUMPI SWAP1 POP JUMPDEST POP SWAP3 POP PUSH1 0x0 PUSH1 0x1 JUMPDEST DUP3 DUP2 GT PUSH2 0x561 JUMPI PUSH1 0x1 PUSH1 0x1 PUSH1 0xA0 SHL SUB DUP7 AND ISZERO DUP1 PUSH2 0x485 JUMPI POP PUSH1 0x0 DUP2 DUP2 MSTORE PUSH1 0x2 DUP6 ADD PUSH1 0x20 MSTORE PUSH1 0x40 SWAP1 KECCAK256 SLOAD PUSH1 0xFF AND DUP1 ISZERO PUSH2 0x485 JUMPI POP PUSH1 0x0 DUP2 DUP2 MSTORE PUSH1 0x3 DUP6 ADD PUSH1 0x20 MSTORE PUSH1 0x40 SWAP1 KECCAK256 SLOAD PUSH1 0x1 PUSH1 0x1 PUSH1 0xA0 SHL SUB DUP8 DUP2 AND SWAP2 AND EQ JUMPDEST ISZERO PUSH2 0x54F JUMPI PUSH1 0x0 DUP2 DUP2 MSTORE PUSH1 0x1 DUP6 ADD PUSH1 0x20 MSTORE PUSH1 0x40 SWAP1 KECCAK256 DUP1 SLOAD PUSH2 0x4A5 SWAP1 PUSH2 0x8E5 JUMP JUMPDEST DUP1 PUSH1 0x1F ADD PUSH1 0x20 DUP1 SWAP2 DIV MUL PUSH1 0x20 ADD PUSH1 0x40 MLOAD SWAP1 DUP2 ADD PUSH1 0x40 MSTORE DUP1 SWAP3 SWAP2 SWAP1 DUP2 DUP2 MSTORE PUSH1 0x20 ADD DUP3 DUP1 SLOAD PUSH2 0x4D1 SWAP1 PUSH2 0x8E5 JUMP JUMPDEST DUP1 ISZERO PUSH2 0x51E JUMPI DUP1 PUSH1 0x1F LT PUSH2 0x4F3 JUMPI PUSH2 0x100 DUP1 DUP4 SLOAD DIV MUL DUP4 MSTORE SWAP2 PUSH1 0x20 ADD SWAP2 PUSH2 0x51E JUMP JUMPDEST DUP3 ADD SWAP2 SWAP1 PUSH1 0x0 MSTORE PUSH1 0x20 PUSH1 0x0 KECCAK256 SWAP1 JUMPDEST DUP2 SLOAD DUP2 MSTORE SWAP1 PUSH1 0x1 ADD SWAP1 PUSH1 0x20 ADD DUP1 DUP4 GT PUSH2 0x501 JUMPI DUP3 SWAP1 SUB PUSH1 0x1F AND DUP3 ADD SWAP2 JUMPDEST POP POP POP POP POP DUP6 DUP4 DUP2 MLOAD DUP2 LT PUSH2 0x535 JUMPI PUSH2 0x535 PUSH2 0x91F JUMP JUMPDEST PUSH1 0x20 MUL PUSH1 0x20 ADD ADD DUP2 SWAP1 MSTORE POP DUP2 DUP1 PUSH2 0x54B SWAP1 PUSH2 0x8BE JUMP JUMPDEST SWAP3 POP POP JUMPDEST DUP1 PUSH2 0x559 DUP2 PUSH2 0x8BE JUMP JUMPDEST SWAP2 POP POP PUSH2 0x432 JUMP JUMPDEST POP POP POP POP SWAP2 SWAP1 POP JUMP JUMPDEST PUSH32 0xF352BA126091B494126FEF2892C8DA20801FD26146BD0CB5611CFE00F6DC924A SLOAD DUP2 LT ISZERO PUSH2 0x104 JUMPI PUSH1 0x40 MLOAD PUSH4 0x2E3D90B PUSH1 0xE0 SHL DUP2 MSTORE PUSH1 0x4 ADD PUSH1 0x40 MLOAD DUP1 SWAP2 SUB SWAP1 REVERT JUMPDEST PUSH1 0x0 DUP2 DUP2 MSTORE PUSH32 0x3E1203F9E3017E885F293B2817C8CF13C3F1A69D3FB206A868B5D52AD69AC941 PUSH1 0x20 MSTORE PUSH1 0x40 SWAP1 KECCAK256 SLOAD PUSH1 0x1 PUSH1 0x1 PUSH1 0xA0 SHL SUB DUP4 DUP2 AND SWAP2 AND EQ PUSH2 0x11A JUMPI PUSH1 0x40 MLOAD PUSH4 0x306E2D5 PUSH1 0xE3 SHL DUP2 MSTORE PUSH1 0x4 ADD PUSH1 0x40 MLOAD DUP1 SWAP2 SUB SWAP1 REVERT JUMPDEST PUSH1 0x0 DUP2 DUP2 MSTORE PUSH32 0x3E1203F9E3017E885F293B2817C8CF13C3F1A69D3FB206A868B5D52AD69AC940 PUSH1 0x20 MSTORE PUSH1 0x40 SWAP1 KECCAK256 SLOAD PUSH1 0xFF AND PUSH2 0x104 JUMPI PUSH1 0x40 MLOAD PUSH4 0x3C1C65A1 PUSH1 0xE2 SHL DUP2 MSTORE PUSH1 0x4 ADD PUSH1 0x40 MLOAD DUP1 SWAP2 SUB SWAP1 REVERT JUMPDEST DUP3 DUP1 SLOAD PUSH2 0x65F SWAP1 PUSH2 0x8E5 JUMP JUMPDEST SWAP1 PUSH1 0x0 MSTORE PUSH1 0x20 PUSH1 0x0 KECCAK256 SWAP1 PUSH1 0x1F ADD PUSH1 0x20 SWAP1 DIV DUP2 ADD SWAP3 DUP3 PUSH2 0x681 JUMPI PUSH1 0x0 DUP6 SSTORE PUSH2 0x6C7 JUMP JUMPDEST DUP3 PUSH1 0x1F LT PUSH2 0x69A JUMPI DUP1 MLOAD PUSH1 0xFF NOT AND DUP4 DUP1 ADD OR DUP6 SSTORE PUSH2 0x6C7 JUMP JUMPDEST DUP3 DUP1 ADD PUSH1 0x1 ADD DUP6 SSTORE DUP3 ISZERO PUSH2 0x6C7 JUMPI SWAP2 DUP3 ADD JUMPDEST DUP3 DUP2 GT ISZERO PUSH2 0x6C7 JUMPI DUP3 MLOAD DUP3 SSTORE SWAP2 PUSH1 0x20 ADD SWAP2 SWAP1 PUSH1 0x1 ADD SWAP1 PUSH2 0x6AC JUMP JUMPDEST POP PUSH2 0x6D3 SWAP3 SWAP2 POP PUSH2 0x6D7 JUMP JUMPDEST POP SWAP1 JUMP JUMPDEST JUMPDEST DUP1 DUP3 GT ISZERO PUSH2 0x6D3 JUMPI PUSH1 0x0 DUP2 SSTORE PUSH1 0x1 ADD PUSH2 0x6D8 JUMP JUMPDEST PUSH4 0x4E487B71 PUSH1 0xE0 SHL PUSH1 0x0 MSTORE PUSH1 0x41 PUSH1 0x4 MSTORE PUSH1 0x24 PUSH1 0x0 REVERT JUMPDEST PUSH1 0x0 PUSH1 0x20 DUP3 DUP5 SUB SLT ISZERO PUSH2 0x714 JUMPI PUSH1 0x0 DUP1 REVERT JUMPDEST DUP2 CALLDATALOAD PUSH8 0xFFFFFFFFFFFFFFFF DUP1 DUP3 GT ISZERO PUSH2 0x72C JUMPI PUSH1 0x0 DUP1 REVERT JUMPDEST DUP2 DUP5 ADD SWAP2 POP DUP5 PUSH1 0x1F DUP4 ADD SLT PUSH2 0x740 JUMPI PUSH1 0x0 DUP1 REVERT JUMPDEST DUP2 CALLDATALOAD DUP2 DUP2 GT ISZERO PUSH2 0x752 JUMPI PUSH2 0x752 PUSH2 0x6EC JUMP JUMPDEST PUSH1 0x40 MLOAD PUSH1 0x1F DUP3 ADD PUSH1 0x1F NOT SWAP1 DUP2 AND PUSH1 0x3F ADD AND DUP2 ADD SWAP1 DUP4 DUP3 GT DUP2 DUP4 LT OR ISZERO PUSH2 0x77A JUMPI PUSH2 0x77A PUSH2 0x6EC JUMP JUMPDEST DUP2 PUSH1 0x40 MSTORE DUP3 DUP2 MSTORE DUP8 PUSH1 0x20 DUP5 DUP8 ADD ADD GT ISZERO PUSH2 0x793 JUMPI PUSH1 0x0 DUP1 REVERT JUMPDEST DUP3 PUSH1 0x20 DUP7 ADD PUSH1 0x20 DUP4 ADD CALLDATACOPY PUSH1 0x0 SWAP3 DUP2 ADD PUSH1 0x20 ADD SWAP3 SWAP1 SWAP3 MSTORE POP SWAP6 SWAP5 POP POP POP POP POP JUMP JUMPDEST PUSH1 0x0 DUP1 PUSH1 0x40 DUP4 DUP6 SUB SLT ISZERO PUSH2 0x7C6 JUMPI PUSH1 0x0 DUP1 REVERT JUMPDEST DUP3 CALLDATALOAD SWAP2 POP PUSH1 0x20 DUP4 ADD CALLDATALOAD DUP1 ISZERO ISZERO DUP2 EQ PUSH2 0x7DD JUMPI PUSH1 0x0 DUP1 REVERT JUMPDEST DUP1 SWAP2 POP POP SWAP3 POP SWAP3 SWAP1 POP JUMP JUMPDEST PUSH1 0x0 PUSH1 0x20 DUP1 DUP4 ADD DUP2 DUP5 MSTORE DUP1 DUP6 MLOAD DUP1 DUP4 MSTORE PUSH1 0x40 DUP7 ADD SWAP2 POP PUSH1 0x40 DUP2 PUSH1 0x5 SHL DUP8 ADD ADD SWAP3 POP DUP4 DUP8 ADD PUSH1 0x0 DUP1 JUMPDEST DUP4 DUP2 LT ISZERO PUSH2 0x875 JUMPI DUP9 DUP7 SUB PUSH1 0x3F NOT ADD DUP6 MSTORE DUP3 MLOAD DUP1 MLOAD DUP1 DUP9 MSTORE DUP4 JUMPDEST DUP2 DUP2 LT ISZERO PUSH2 0x845 JUMPI DUP3 DUP2 ADD DUP11 ADD MLOAD DUP10 DUP3 ADD DUP12 ADD MSTORE DUP10 ADD PUSH2 0x82A JUMP JUMPDEST DUP2 DUP2 GT ISZERO PUSH2 0x855 JUMPI DUP5 DUP11 DUP4 DUP12 ADD ADD MSTORE JUMPDEST POP PUSH1 0x1F ADD PUSH1 0x1F NOT AND SWAP7 SWAP1 SWAP7 ADD DUP8 ADD SWAP6 POP SWAP4 DUP7 ADD SWAP4 SWAP2 DUP7 ADD SWAP2 PUSH1 0x1 ADD PUSH2 0x810 JUMP JUMPDEST POP SWAP4 SWAP9 SWAP8 POP POP POP POP POP POP POP POP JUMP JUMPDEST PUSH1 0x0 DUP1 PUSH1 0x40 DUP4 DUP6 SUB SLT ISZERO PUSH2 0x896 JUMPI PUSH1 0x0 DUP1 REVERT JUMPDEST POP POP DUP1 CALLDATALOAD SWAP3 PUSH1 0x20 SWAP1 SWAP2 ADD CALLDATALOAD SWAP2 POP JUMP JUMPDEST PUSH1 0x0 PUSH1 0x20 DUP3 DUP5 SUB SLT ISZERO PUSH2 0x8B7 JUMPI PUSH1 0x0 DUP1 REVERT JUMPDEST POP CALLDATALOAD SWAP2 SWAP1 POP JUMP JUMPDEST PUSH1 0x0 PUSH1 0x1 DUP3 ADD PUSH2 0x8DE JUMPI PUSH4 0x4E487B71 PUSH1 0xE0 SHL PUSH1 0x0 MSTORE PUSH1 0x11 PUSH1 0x4 MSTORE PUSH1 0x24 PUSH1 0x0 REVERT JUMPDEST POP PUSH1 0x1 ADD SWAP1 JUMP JUMPDEST PUSH1 0x1 DUP2 DUP2 SHR SWAP1 DUP3 AND DUP1 PUSH2 0x8F9 JUMPI PUSH1 0x7F DUP3 AND SWAP2 POP JUMPDEST PUSH1 0x20 DUP3 LT DUP2 SUB PUSH2 0x919 JUMPI PUSH4 0x4E487B71 PUSH1 0xE0 SHL PUSH1 0x0 MSTORE PUSH1 0x22 PUSH1 0x4 MSTORE PUSH1 0x24 PUSH1 0x0 REVERT JUMPDEST POP SWAP2 SWAP1 POP JUMP JUMPDEST PUSH4 0x4E487B71 PUSH1 0xE0 SHL PUSH1 0x0 MSTORE PUSH1 0x32 PUSH1 0x4 MSTORE PUSH1 0x24 PUSH1 0x0 REVERT INVALID LOG2 PUSH5 0x6970667358 0x22 SLT KECCAK256 SELFDESTRUCT DUP1 PUSH21 0xEC3EFA3BF6CBCAC33B82C4ACA824C1526174387A1A REVERT 0xE7 0xA6 0x5F SWAP5 0xA6 SWAP11 0xDF PUSH5 0x736F6C6343 STOP ADDMOD 0xD STOP CALLER "
        },
        "gasEstimates": {
          "creation": {
            "codeDepositCost": "482200",
            "executionCost": "518",
            "totalCost": "482718"
          },
          "external": {
            "addAlcohol(string)": "infinite",
            "addMedicine(string)": "infinite",
            "buyAlcohol(uint256,uint256)": "infinite",
            "buyMedicine(uint256,bool)": "infinite",
            "getBeerStoreItems()": "infinite",
            "setMinAge(uint256)": "22400"
          }
        },
        "methodIdentifiers": {
          "addAlcohol(string)": "0d66b8e8",
          "addMedicine(string)": "60234f10",
          "buyAlcohol(uint256,uint256)": "c677efc2",
          "buyMedicine(uint256,bool)": "108befb5",
          "getBeerStoreItems()": "bdd33bf0",
          "setMinAge(uint256)": "d34ff9c3"
        }
      },
      "storageLayout": {
        "storage": [],
        "types": null
      },
      "userdoc": {
        "kind": "user",
        "methods": {},
        "version": 1
      }
    }
  }
}