{
  "contracts/PoC/facets/MeatStoreFacet.sol": {
    "MeatStoreFacet": {
      "abi": [
        {
          "inputs": [],
          "name": "ItemNotAvailable",
          "type": "error"
        },
        {
          "inputs": [],
          "name": "ItemNotSoldAtStore",
          "type": "error"
        },
        {
          "inputs": [
            {
              "internalType": "address",
              "name": "_user",
              "type": "address"
            },
            {
              "internalType": "address",
              "name": "_contractOwner",
              "type": "address"
            }
          ],
          "name": "NotContractOwner",
          "type": "error"
        },
        {
          "anonymous": false,
          "inputs": [
            {
              "indexed": false,
              "internalType": "uint256",
              "name": "idx",
              "type": "uint256"
            },
            {
              "indexed": false,
              "internalType": "string",
              "name": "name",
              "type": "string"
            }
          ],
          "name": "meatAdded",
          "type": "event"
        },
        {
          "anonymous": false,
          "inputs": [
            {
              "indexed": false,
              "internalType": "uint256",
              "name": "idx",
              "type": "uint256"
            }
          ],
          "name": "meatRemoved",
          "type": "event"
        },
        {
          "inputs": [
            {
              "internalType": "string",
              "name": "_newMeat",
              "type": "string"
            }
          ],
          "name": "addMeat",
          "outputs": [],
          "stateMutability": "nonpayable",
          "type": "function"
        },
        {
          "inputs": [
            {
              "internalType": "uint256",
              "name": "_idx",
              "type": "uint256"
            }
          ],
          "name": "buyMeat",
          "outputs": [],
          "stateMutability": "nonpayable",
          "type": "function"
        },
        {
          "inputs": [],
          "name": "getButcherName",
          "outputs": [
            {
              "internalType": "string",
              "name": "_butcherName",
              "type": "string"
            }
          ],
          "stateMutability": "view",
          "type": "function"
        },
        {
          "inputs": [],
          "name": "getStoreItems",
          "outputs": [
            {
              "internalType": "string[]",
              "name": "itemList",
              "type": "string[]"
            }
          ],
          "stateMutability": "view",
          "type": "function"
        },
        {
          "inputs": [
            {
              "internalType": "uint256",
              "name": "_idx",
              "type": "uint256"
            }
          ],
          "name": "removeMeat",
          "outputs": [],
          "stateMutability": "nonpayable",
          "type": "function"
        },
        {
          "inputs": [
            {
              "internalType": "string",
              "name": "_newButcherName",
              "type": "string"
            }
          ],
          "name": "setButcherName",
          "outputs": [],
          "stateMutability": "nonpayable",
          "type": "function"
        }
      ],
      "devdoc": {
        "kind": "dev",
        "methods": {},
        "version": 1
      },
      "evm": {
        "bytecode": {
          "linkReferences": {},
          "object": "608060405234801561001057600080fd5b50610a10806100206000396000f3fe608060405234801561001057600080fd5b50600436106100625760003560e01c8063084b5069146100675780632d9088bd1461007c57806331f5a14a1461009a578063434d1c98146100af578063661c5780146100c2578063a986d48a146100d5575b600080fd5b61007a61007536600461079a565b6100e8565b005b61008461016d565b6040516100919190610800565b60405180910390f35b6100a261017d565b6040516100919190610862565b61007a6100bd36600461079a565b610187565b61007a6100d0366004610892565b610194565b61007a6100e3366004610892565b6101a6565b6100f06101b7565b60008181527f3e1203f9e3017e885f293b2817c8cf13c3f1a69d3fb206a868b5d52ad69ac9406020908152604091829020805460ff1916905590518281526000805160206109bb833981519152917f95a7d0589327ee45472a652c32c9315e86ec14ec4c2c97003af8a0eb6b0fa074910160405180910390a15050565b606061017830610241565b905090565b60606101786103e2565b6101918130610498565b50565b61019c6101b7565b610191813061054f565b6101ae6101b7565b6101918161061d565b7fc8fcad8db84d3cc18b4c41d551ea0ee66dd599cde068d998e57d5e09332c131c600301546001600160a01b0316331461023f577fc8fcad8db84d3cc18b4c41d551ea0ee66dd599cde068d998e57d5e09332c131f5460408051600162bed83560e01b031981523360048201526001600160a01b039092166024830152519081900360440190fd5b565b6000805160206109bb8339815191528054606091908067ffffffffffffffff81111561026f5761026f61087c565b6040519080825280602002602001820160405280156102a257816020015b606081526020019060019003908161028d5790505b509250600060015b8281116103d9576001600160a01b03861615806102fd5750600081815260028501602052604090205460ff1680156102fd575060008181526003850160205260409020546001600160a01b038781169116145b156103c75760008181526001850160205260409020805461031d90610943565b80601f016020809104026020016040519081016040528092919081815260200182805461034990610943565b80156103965780601f1061036b57610100808354040283529160200191610396565b820191906000526020600020905b81548152906001019060200180831161037957829003601f168201915b50505050508583815181106103ad576103ad61097d565b602002602001018190525081806103c390610993565b9250505b806103d181610993565b9150506102aa565b50505050919050565b7fb52d88f0c7e24f6a206036c0ee87f7de87b496cd31bef73246b85956058c7299805460609190819061041490610943565b80601f016020809104026020016040519081016040528092919081815260200182805461044090610943565b801561048d5780601f106104625761010080835404028352916020019161048d565b820191906000526020600020905b81548152906001019060200180831161047057829003601f168201915b505050505091505090565b6104a28183610656565b6104ab826106b3565b60008281527f3e1203f9e3017e885f293b2817c8cf13c3f1a69d3fb206a868b5d52ad69ac9426020526040812080546000805160206109bb833981519152929091906104f683610993565b90915550503360009081526005820160209081526040808320868452909152812080549161052383610993565b9091555050336000908152600682016020526040812080549161054583610993565b9190505550505050565b6000805160206109bb833981519152805460010180825560009081527f3e1203f9e3017e885f293b2817c8cf13c3f1a69d3fb206a868b5d52ad69ac93f6020908152604090912084516105a492860190610701565b50816003820160006105b4845490565b815260200190815260200160002060006101000a8154816001600160a01b0302191690836001600160a01b0316021790555060018160020160006105f9846000015490565b81526020810191909152604001600020805460ff1916911515919091179055505050565b80517fb52d88f0c7e24f6a206036c0ee87f7de87b496cd31bef73246b85956058c7299906106519082906020850190610701565b505050565b60008181527f3e1203f9e3017e885f293b2817c8cf13c3f1a69d3fb206a868b5d52ad69ac94160205260409020546001600160a01b038381169116146106af57604051630306e2d560e31b815260040160405180910390fd5b5050565b60008181527f3e1203f9e3017e885f293b2817c8cf13c3f1a69d3fb206a868b5d52ad69ac940602052604090205460ff1661019157604051633c1c65a160e21b815260040160405180910390fd5b82805461070d90610943565b90600052602060002090601f01602090048101928261072f5760008555610775565b82601f1061074857805160ff1916838001178555610775565b82800160010185558215610775579182015b8281111561077557825182559160200191906001019061075a565b50610781929150610785565b5090565b5b808211156107815760008155600101610786565b6000602082840312156107ac57600080fd5b5035919050565b6000815180845260005b818110156107d9576020818501810151868301820152016107bd565b818111156107eb576000602083870101525b50601f01601f19169290920160200192915050565b6000602080830181845280855180835260408601915060408160051b870101925083870160005b8281101561085557603f198886030184526108438583516107b3565b94509285019290850190600101610827565b5092979650505050505050565b60208152600061087560208301846107b3565b9392505050565b634e487b7160e01b600052604160045260246000fd5b6000602082840312156108a457600080fd5b813567ffffffffffffffff808211156108bc57600080fd5b818401915084601f8301126108d057600080fd5b8135818111156108e2576108e261087c565b604051601f8201601f19908116603f0116810190838211818310171561090a5761090a61087c565b8160405282815287602084870101111561092357600080fd5b826020860160208301376000928101602001929092525095945050505050565b600181811c9082168061095757607f821691505b60208210810361097757634e487b7160e01b600052602260045260246000fd5b50919050565b634e487b7160e01b600052603260045260246000fd5b6000600182016109b357634e487b7160e01b600052601160045260246000fd5b506001019056fe3e1203f9e3017e885f293b2817c8cf13c3f1a69d3fb206a868b5d52ad69ac93ea26469706673582212203c3a08e36b69932c9bfb1fdbdf7590152957280d8a047f9c033b3026acd09e8264736f6c634300080d0033",
          "opcodes": "PUSH1 0x80 PUSH1 0x40 MSTORE CALLVALUE DUP1 ISZERO PUSH2 0x10 JUMPI PUSH1 0x0 DUP1 REVERT JUMPDEST POP PUSH2 0xA10 DUP1 PUSH2 0x20 PUSH1 0x0 CODECOPY PUSH1 0x0 RETURN INVALID PUSH1 0x80 PUSH1 0x40 MSTORE CALLVALUE DUP1 ISZERO PUSH2 0x10 JUMPI PUSH1 0x0 DUP1 REVERT JUMPDEST POP PUSH1 0x4 CALLDATASIZE LT PUSH2 0x62 JUMPI PUSH1 0x0 CALLDATALOAD PUSH1 0xE0 SHR DUP1 PUSH4 0x84B5069 EQ PUSH2 0x67 JUMPI DUP1 PUSH4 0x2D9088BD EQ PUSH2 0x7C JUMPI DUP1 PUSH4 0x31F5A14A EQ PUSH2 0x9A JUMPI DUP1 PUSH4 0x434D1C98 EQ PUSH2 0xAF JUMPI DUP1 PUSH4 0x661C5780 EQ PUSH2 0xC2 JUMPI DUP1 PUSH4 0xA986D48A EQ PUSH2 0xD5 JUMPI JUMPDEST PUSH1 0x0 DUP1 REVERT JUMPDEST PUSH2 0x7A PUSH2 0x75 CALLDATASIZE PUSH1 0x4 PUSH2 0x79A JUMP JUMPDEST PUSH2 0xE8 JUMP JUMPDEST STOP JUMPDEST PUSH2 0x84 PUSH2 0x16D JUMP JUMPDEST PUSH1 0x40 MLOAD PUSH2 0x91 SWAP2 SWAP1 PUSH2 0x800 JUMP JUMPDEST PUSH1 0x40 MLOAD DUP1 SWAP2 SUB SWAP1 RETURN JUMPDEST PUSH2 0xA2 PUSH2 0x17D JUMP JUMPDEST PUSH1 0x40 MLOAD PUSH2 0x91 SWAP2 SWAP1 PUSH2 0x862 JUMP JUMPDEST PUSH2 0x7A PUSH2 0xBD CALLDATASIZE PUSH1 0x4 PUSH2 0x79A JUMP JUMPDEST PUSH2 0x187 JUMP JUMPDEST PUSH2 0x7A PUSH2 0xD0 CALLDATASIZE PUSH1 0x4 PUSH2 0x892 JUMP JUMPDEST PUSH2 0x194 JUMP JUMPDEST PUSH2 0x7A PUSH2 0xE3 CALLDATASIZE PUSH1 0x4 PUSH2 0x892 JUMP JUMPDEST PUSH2 0x1A6 JUMP JUMPDEST PUSH2 0xF0 PUSH2 0x1B7 JUMP JUMPDEST PUSH1 0x0 DUP2 DUP2 MSTORE PUSH32 0x3E1203F9E3017E885F293B2817C8CF13C3F1A69D3FB206A868B5D52AD69AC940 PUSH1 0x20 SWAP1 DUP2 MSTORE PUSH1 0x40 SWAP2 DUP3 SWAP1 KECCAK256 DUP1 SLOAD PUSH1 0xFF NOT AND SWAP1 SSTORE SWAP1 MLOAD DUP3 DUP2 MSTORE PUSH1 0x0 DUP1 MLOAD PUSH1 0x20 PUSH2 0x9BB DUP4 CODECOPY DUP2 MLOAD SWAP2 MSTORE SWAP2 PUSH32 0x95A7D0589327EE45472A652C32C9315E86EC14EC4C2C97003AF8A0EB6B0FA074 SWAP2 ADD PUSH1 0x40 MLOAD DUP1 SWAP2 SUB SWAP1 LOG1 POP POP JUMP JUMPDEST PUSH1 0x60 PUSH2 0x178 ADDRESS PUSH2 0x241 JUMP JUMPDEST SWAP1 POP SWAP1 JUMP JUMPDEST PUSH1 0x60 PUSH2 0x178 PUSH2 0x3E2 JUMP JUMPDEST PUSH2 0x191 DUP2 ADDRESS PUSH2 0x498 JUMP JUMPDEST POP JUMP JUMPDEST PUSH2 0x19C PUSH2 0x1B7 JUMP JUMPDEST PUSH2 0x191 DUP2 ADDRESS PUSH2 0x54F JUMP JUMPDEST PUSH2 0x1AE PUSH2 0x1B7 JUMP JUMPDEST PUSH2 0x191 DUP2 PUSH2 0x61D JUMP JUMPDEST PUSH32 0xC8FCAD8DB84D3CC18B4C41D551EA0EE66DD599CDE068D998E57D5E09332C131C PUSH1 0x3 ADD SLOAD PUSH1 0x1 PUSH1 0x1 PUSH1 0xA0 SHL SUB AND CALLER EQ PUSH2 0x23F JUMPI PUSH32 0xC8FCAD8DB84D3CC18B4C41D551EA0EE66DD599CDE068D998E57D5E09332C131F SLOAD PUSH1 0x40 DUP1 MLOAD PUSH1 0x1 PUSH3 0xBED835 PUSH1 0xE0 SHL SUB NOT DUP2 MSTORE CALLER PUSH1 0x4 DUP3 ADD MSTORE PUSH1 0x1 PUSH1 0x1 PUSH1 0xA0 SHL SUB SWAP1 SWAP3 AND PUSH1 0x24 DUP4 ADD MSTORE MLOAD SWAP1 DUP2 SWAP1 SUB PUSH1 0x44 ADD SWAP1 REVERT JUMPDEST JUMP JUMPDEST PUSH1 0x0 DUP1 MLOAD PUSH1 0x20 PUSH2 0x9BB DUP4 CODECOPY DUP2 MLOAD SWAP2 MSTORE DUP1 SLOAD PUSH1 0x60 SWAP2 SWAP1 DUP1 PUSH8 0xFFFFFFFFFFFFFFFF DUP2 GT ISZERO PUSH2 0x26F JUMPI PUSH2 0x26F PUSH2 0x87C JUMP JUMPDEST PUSH1 0x40 MLOAD SWAP1 DUP1 DUP3 MSTORE DUP1 PUSH1 0x20 MUL PUSH1 0x20 ADD DUP3 ADD PUSH1 0x40 MSTORE DUP1 ISZERO PUSH2 0x2A2 JUMPI DUP2 PUSH1 0x20 ADD JUMPDEST PUSH1 0x60 DUP2 MSTORE PUSH1 0x20 ADD SWAP1 PUSH1 0x1 SWAP1 SUB SWAP1 DUP2 PUSH2 0x28D JUMPI SWAP1 POP JUMPDEST POP SWAP3 POP PUSH1 0x0 PUSH1 0x1 JUMPDEST DUP3 DUP2 GT PUSH2 0x3D9 JUMPI PUSH1 0x1 PUSH1 0x1 PUSH1 0xA0 SHL SUB DUP7 AND ISZERO DUP1 PUSH2 0x2FD JUMPI POP PUSH1 0x0 DUP2 DUP2 MSTORE PUSH1 0x2 DUP6 ADD PUSH1 0x20 MSTORE PUSH1 0x40 SWAP1 KECCAK256 SLOAD PUSH1 0xFF AND DUP1 ISZERO PUSH2 0x2FD JUMPI POP PUSH1 0x0 DUP2 DUP2 MSTORE PUSH1 0x3 DUP6 ADD PUSH1 0x20 MSTORE PUSH1 0x40 SWAP1 KECCAK256 SLOAD PUSH1 0x1 PUSH1 0x1 PUSH1 0xA0 SHL SUB DUP8 DUP2 AND SWAP2 AND EQ JUMPDEST ISZERO PUSH2 0x3C7 JUMPI PUSH1 0x0 DUP2 DUP2 MSTORE PUSH1 0x1 DUP6 ADD PUSH1 0x20 MSTORE PUSH1 0x40 SWAP1 KECCAK256 DUP1 SLOAD PUSH2 0x31D SWAP1 PUSH2 0x943 JUMP JUMPDEST DUP1 PUSH1 0x1F ADD PUSH1 0x20 DUP1 SWAP2 DIV MUL PUSH1 0x20 ADD PUSH1 0x40 MLOAD SWAP1 DUP2 ADD PUSH1 0x40 MSTORE DUP1 SWAP3 SWAP2 SWAP1 DUP2 DUP2 MSTORE PUSH1 0x20 ADD DUP3 DUP1 SLOAD PUSH2 0x349 SWAP1 PUSH2 0x943 JUMP JUMPDEST DUP1 ISZERO PUSH2 0x396 JUMPI DUP1 PUSH1 0x1F LT PUSH2 0x36B JUMPI PUSH2 0x100 DUP1 DUP4 SLOAD DIV MUL DUP4 MSTORE SWAP2 PUSH1 0x20 ADD SWAP2 PUSH2 0x396 JUMP JUMPDEST DUP3 ADD SWAP2 SWAP1 PUSH1 0x0 MSTORE PUSH1 0x20 PUSH1 0x0 KECCAK256 SWAP1 JUMPDEST DUP2 SLOAD DUP2 MSTORE SWAP1 PUSH1 0x1 ADD SWAP1 PUSH1 0x20 ADD DUP1 DUP4 GT PUSH2 0x379 JUMPI DUP3 SWAP1 SUB PUSH1 0x1F AND DUP3 ADD SWAP2 JUMPDEST POP POP POP POP POP DUP6 DUP4 DUP2 MLOAD DUP2 LT PUSH2 0x3AD JUMPI PUSH2 0x3AD PUSH2 0x97D JUMP JUMPDEST PUSH1 0x20 MUL PUSH1 0x20 ADD ADD DUP2 SWAP1 MSTORE POP DUP2 DUP1 PUSH2 0x3C3 SWAP1 PUSH2 0x993 JUMP JUMPDEST SWAP3 POP POP JUMPDEST DUP1 PUSH2 0x3D1 DUP2 PUSH2 0x993 JUMP JUMPDEST SWAP2 POP POP PUSH2 0x2AA JUMP JUMPDEST POP POP POP POP SWAP2 SWAP1 POP JUMP JUMPDEST PUSH32 0xB52D88F0C7E24F6A206036C0EE87F7DE87B496CD31BEF73246B85956058C7299 DUP1 SLOAD PUSH1 0x60 SWAP2 SWAP1 DUP2 SWAP1 PUSH2 0x414 SWAP1 PUSH2 0x943 JUMP JUMPDEST DUP1 PUSH1 0x1F ADD PUSH1 0x20 DUP1 SWAP2 DIV MUL PUSH1 0x20 ADD PUSH1 0x40 MLOAD SWAP1 DUP2 ADD PUSH1 0x40 MSTORE DUP1 SWAP3 SWAP2 SWAP1 DUP2 DUP2 MSTORE PUSH1 0x20 ADD DUP3 DUP1 SLOAD PUSH2 0x440 SWAP1 PUSH2 0x943 JUMP JUMPDEST DUP1 ISZERO PUSH2 0x48D JUMPI DUP1 PUSH1 0x1F LT PUSH2 0x462 JUMPI PUSH2 0x100 DUP1 DUP4 SLOAD DIV MUL DUP4 MSTORE SWAP2 PUSH1 0x20 ADD SWAP2 PUSH2 0x48D JUMP JUMPDEST DUP3 ADD SWAP2 SWAP1 PUSH1 0x0 MSTORE PUSH1 0x20 PUSH1 0x0 KECCAK256 SWAP1 JUMPDEST DUP2 SLOAD DUP2 MSTORE SWAP1 PUSH1 0x1 ADD SWAP1 PUSH1 0x20 ADD DUP1 DUP4 GT PUSH2 0x470 JUMPI DUP3 SWAP1 SUB PUSH1 0x1F AND DUP3 ADD SWAP2 JUMPDEST POP POP POP POP POP SWAP2 POP POP SWAP1 JUMP JUMPDEST PUSH2 0x4A2 DUP2 DUP4 PUSH2 0x656 JUMP JUMPDEST PUSH2 0x4AB DUP3 PUSH2 0x6B3 JUMP JUMPDEST PUSH1 0x0 DUP3 DUP2 MSTORE PUSH32 0x3E1203F9E3017E885F293B2817C8CF13C3F1A69D3FB206A868B5D52AD69AC942 PUSH1 0x20 MSTORE PUSH1 0x40 DUP2 KECCAK256 DUP1 SLOAD PUSH1 0x0 DUP1 MLOAD PUSH1 0x20 PUSH2 0x9BB DUP4 CODECOPY DUP2 MLOAD SWAP2 MSTORE SWAP3 SWAP1 SWAP2 SWAP1 PUSH2 0x4F6 DUP4 PUSH2 0x993 JUMP JUMPDEST SWAP1 SWAP2 SSTORE POP POP CALLER PUSH1 0x0 SWAP1 DUP2 MSTORE PUSH1 0x5 DUP3 ADD PUSH1 0x20 SWAP1 DUP2 MSTORE PUSH1 0x40 DUP1 DUP4 KECCAK256 DUP7 DUP5 MSTORE SWAP1 SWAP2 MSTORE DUP2 KECCAK256 DUP1 SLOAD SWAP2 PUSH2 0x523 DUP4 PUSH2 0x993 JUMP JUMPDEST SWAP1 SWAP2 SSTORE POP POP CALLER PUSH1 0x0 SWAP1 DUP2 MSTORE PUSH1 0x6 DUP3 ADD PUSH1 0x20 MSTORE PUSH1 0x40 DUP2 KECCAK256 DUP1 SLOAD SWAP2 PUSH2 0x545 DUP4 PUSH2 0x993 JUMP JUMPDEST SWAP2 SWAP1 POP SSTORE POP POP POP POP JUMP JUMPDEST PUSH1 0x0 DUP1 MLOAD PUSH1 0x20 PUSH2 0x9BB DUP4 CODECOPY DUP2 MLOAD SWAP2 MSTORE DUP1 SLOAD PUSH1 0x1 ADD DUP1 DUP3 SSTORE PUSH1 0x0 SWAP1 DUP2 MSTORE PUSH32 0x3E1203F9E3017E885F293B2817C8CF13C3F1A69D3FB206A868B5D52AD69AC93F PUSH1 0x20 SWAP1 DUP2 MSTORE PUSH1 0x40 SWAP1 SWAP2 KECCAK256 DUP5 MLOAD PUSH2 0x5A4 SWAP3 DUP7 ADD SWAP1 PUSH2 0x701 JUMP JUMPDEST POP DUP2 PUSH1 0x3 DUP3 ADD PUSH1 0x0 PUSH2 0x5B4 DUP5 SLOAD SWAP1 JUMP JUMPDEST DUP2 MSTORE PUSH1 0x20 ADD SWAP1 DUP2 MSTORE PUSH1 0x20 ADD PUSH1 0x0 KECCAK256 PUSH1 0x0 PUSH2 0x100 EXP DUP2 SLOAD DUP2 PUSH1 0x1 PUSH1 0x1 PUSH1 0xA0 SHL SUB MUL NOT AND SWAP1 DUP4 PUSH1 0x1 PUSH1 0x1 PUSH1 0xA0 SHL SUB AND MUL OR SWAP1 SSTORE POP PUSH1 0x1 DUP2 PUSH1 0x2 ADD PUSH1 0x0 PUSH2 0x5F9 DUP5 PUSH1 0x0 ADD SLOAD SWAP1 JUMP JUMPDEST DUP2 MSTORE PUSH1 0x20 DUP2 ADD SWAP2 SWAP1 SWAP2 MSTORE PUSH1 0x40 ADD PUSH1 0x0 KECCAK256 DUP1 SLOAD PUSH1 0xFF NOT AND SWAP2 ISZERO ISZERO SWAP2 SWAP1 SWAP2 OR SWAP1 SSTORE POP POP POP JUMP JUMPDEST DUP1 MLOAD PUSH32 0xB52D88F0C7E24F6A206036C0EE87F7DE87B496CD31BEF73246B85956058C7299 SWAP1 PUSH2 0x651 SWAP1 DUP3 SWAP1 PUSH1 0x20 DUP6 ADD SWAP1 PUSH2 0x701 JUMP JUMPDEST POP POP POP JUMP JUMPDEST PUSH1 0x0 DUP2 DUP2 MSTORE PUSH32 0x3E1203F9E3017E885F293B2817C8CF13C3F1A69D3FB206A868B5D52AD69AC941 PUSH1 0x20 MSTORE PUSH1 0x40 SWAP1 KECCAK256 SLOAD PUSH1 0x1 PUSH1 0x1 PUSH1 0xA0 SHL SUB DUP4 DUP2 AND SWAP2 AND EQ PUSH2 0x6AF JUMPI PUSH1 0x40 MLOAD PUSH4 0x306E2D5 PUSH1 0xE3 SHL DUP2 MSTORE PUSH1 0x4 ADD PUSH1 0x40 MLOAD DUP1 SWAP2 SUB SWAP1 REVERT JUMPDEST POP POP JUMP JUMPDEST PUSH1 0x0 DUP2 DUP2 MSTORE PUSH32 0x3E1203F9E3017E885F293B2817C8CF13C3F1A69D3FB206A868B5D52AD69AC940 PUSH1 0x20 MSTORE PUSH1 0x40 SWAP1 KECCAK256 SLOAD PUSH1 0xFF AND PUSH2 0x191 JUMPI PUSH1 0x40 MLOAD PUSH4 0x3C1C65A1 PUSH1 0xE2 SHL DUP2 MSTORE PUSH1 0x4 ADD PUSH1 0x40 MLOAD DUP1 SWAP2 SUB SWAP1 REVERT JUMPDEST DUP3 DUP1 SLOAD PUSH2 0x70D SWAP1 PUSH2 0x943 JUMP JUMPDEST SWAP1 PUSH1 0x0 MSTORE PUSH1 0x20 PUSH1 0x0 KECCAK256 SWAP1 PUSH1 0x1F ADD PUSH1 0x20 SWAP1 DIV DUP2 ADD SWAP3 DUP3 PUSH2 0x72F JUMPI PUSH1 0x0 DUP6 SSTORE PUSH2 0x775 JUMP JUMPDEST DUP3 PUSH1 0x1F LT PUSH2 0x748 JUMPI DUP1 MLOAD PUSH1 0xFF NOT AND DUP4 DUP1 ADD OR DUP6 SSTORE PUSH2 0x775 JUMP JUMPDEST DUP3 DUP1 ADD PUSH1 0x1 ADD DUP6 SSTORE DUP3 ISZERO PUSH2 0x775 JUMPI SWAP2 DUP3 ADD JUMPDEST DUP3 DUP2 GT ISZERO PUSH2 0x775 JUMPI DUP3 MLOAD DUP3 SSTORE SWAP2 PUSH1 0x20 ADD SWAP2 SWAP1 PUSH1 0x1 ADD SWAP1 PUSH2 0x75A JUMP JUMPDEST POP PUSH2 0x781 SWAP3 SWAP2 POP PUSH2 0x785 JUMP JUMPDEST POP SWAP1 JUMP JUMPDEST JUMPDEST DUP1 DUP3 GT ISZERO PUSH2 0x781 JUMPI PUSH1 0x0 DUP2 SSTORE PUSH1 0x1 ADD PUSH2 0x786 JUMP JUMPDEST PUSH1 0x0 PUSH1 0x20 DUP3 DUP5 SUB SLT ISZERO PUSH2 0x7AC JUMPI PUSH1 0x0 DUP1 REVERT JUMPDEST POP CALLDATALOAD SWAP2 SWAP1 POP JUMP JUMPDEST PUSH1 0x0 DUP2 MLOAD DUP1 DUP5 MSTORE PUSH1 0x0 JUMPDEST DUP2 DUP2 LT ISZERO PUSH2 0x7D9 JUMPI PUSH1 0x20 DUP2 DUP6 ADD DUP2 ADD MLOAD DUP7 DUP4 ADD DUP3 ADD MSTORE ADD PUSH2 0x7BD JUMP JUMPDEST DUP2 DUP2 GT ISZERO PUSH2 0x7EB JUMPI PUSH1 0x0 PUSH1 0x20 DUP4 DUP8 ADD ADD MSTORE JUMPDEST POP PUSH1 0x1F ADD PUSH1 0x1F NOT AND SWAP3 SWAP1 SWAP3 ADD PUSH1 0x20 ADD SWAP3 SWAP2 POP POP JUMP JUMPDEST PUSH1 0x0 PUSH1 0x20 DUP1 DUP4 ADD DUP2 DUP5 MSTORE DUP1 DUP6 MLOAD DUP1 DUP4 MSTORE PUSH1 0x40 DUP7 ADD SWAP2 POP PUSH1 0x40 DUP2 PUSH1 0x5 SHL DUP8 ADD ADD SWAP3 POP DUP4 DUP8 ADD PUSH1 0x0 JUMPDEST DUP3 DUP2 LT ISZERO PUSH2 0x855 JUMPI PUSH1 0x3F NOT DUP9 DUP7 SUB ADD DUP5 MSTORE PUSH2 0x843 DUP6 DUP4 MLOAD PUSH2 0x7B3 JUMP JUMPDEST SWAP5 POP SWAP3 DUP6 ADD SWAP3 SWAP1 DUP6 ADD SWAP1 PUSH1 0x1 ADD PUSH2 0x827 JUMP JUMPDEST POP SWAP3 SWAP8 SWAP7 POP POP POP POP POP POP POP JUMP JUMPDEST PUSH1 0x20 DUP2 MSTORE PUSH1 0x0 PUSH2 0x875 PUSH1 0x20 DUP4 ADD DUP5 PUSH2 0x7B3 JUMP JUMPDEST SWAP4 SWAP3 POP POP POP JUMP JUMPDEST PUSH4 0x4E487B71 PUSH1 0xE0 SHL PUSH1 0x0 MSTORE PUSH1 0x41 PUSH1 0x4 MSTORE PUSH1 0x24 PUSH1 0x0 REVERT JUMPDEST PUSH1 0x0 PUSH1 0x20 DUP3 DUP5 SUB SLT ISZERO PUSH2 0x8A4 JUMPI PUSH1 0x0 DUP1 REVERT JUMPDEST DUP2 CALLDATALOAD PUSH8 0xFFFFFFFFFFFFFFFF DUP1 DUP3 GT ISZERO PUSH2 0x8BC JUMPI PUSH1 0x0 DUP1 REVERT JUMPDEST DUP2 DUP5 ADD SWAP2 POP DUP5 PUSH1 0x1F DUP4 ADD SLT PUSH2 0x8D0 JUMPI PUSH1 0x0 DUP1 REVERT JUMPDEST DUP2 CALLDATALOAD DUP2 DUP2 GT ISZERO PUSH2 0x8E2 JUMPI PUSH2 0x8E2 PUSH2 0x87C JUMP JUMPDEST PUSH1 0x40 MLOAD PUSH1 0x1F DUP3 ADD PUSH1 0x1F NOT SWAP1 DUP2 AND PUSH1 0x3F ADD AND DUP2 ADD SWAP1 DUP4 DUP3 GT DUP2 DUP4 LT OR ISZERO PUSH2 0x90A JUMPI PUSH2 0x90A PUSH2 0x87C JUMP JUMPDEST DUP2 PUSH1 0x40 MSTORE DUP3 DUP2 MSTORE DUP8 PUSH1 0x20 DUP5 DUP8 ADD ADD GT ISZERO PUSH2 0x923 JUMPI PUSH1 0x0 DUP1 REVERT JUMPDEST DUP3 PUSH1 0x20 DUP7 ADD PUSH1 0x20 DUP4 ADD CALLDATACOPY PUSH1 0x0 SWAP3 DUP2 ADD PUSH1 0x20 ADD SWAP3 SWAP1 SWAP3 MSTORE POP SWAP6 SWAP5 POP POP POP POP POP JUMP JUMPDEST PUSH1 0x1 DUP2 DUP2 SHR SWAP1 DUP3 AND DUP1 PUSH2 0x957 JUMPI PUSH1 0x7F DUP3 AND SWAP2 POP JUMPDEST PUSH1 0x20 DUP3 LT DUP2 SUB PUSH2 0x977 JUMPI PUSH4 0x4E487B71 PUSH1 0xE0 SHL PUSH1 0x0 MSTORE PUSH1 0x22 PUSH1 0x4 MSTORE PUSH1 0x24 PUSH1 0x0 REVERT JUMPDEST POP SWAP2 SWAP1 POP JUMP JUMPDEST PUSH4 0x4E487B71 PUSH1 0xE0 SHL PUSH1 0x0 MSTORE PUSH1 0x32 PUSH1 0x4 MSTORE PUSH1 0x24 PUSH1 0x0 REVERT JUMPDEST PUSH1 0x0 PUSH1 0x1 DUP3 ADD PUSH2 0x9B3 JUMPI PUSH4 0x4E487B71 PUSH1 0xE0 SHL PUSH1 0x0 MSTORE PUSH1 0x11 PUSH1 0x4 MSTORE PUSH1 0x24 PUSH1 0x0 REVERT JUMPDEST POP PUSH1 0x1 ADD SWAP1 JUMP INVALID RETURNDATACOPY SLT SUB 0xF9 0xE3 ADD PUSH31 0x885F293B2817C8CF13C3F1A69D3FB206A868B5D52AD69AC93EA26469706673 PC 0x22 SLT KECCAK256 EXTCODECOPY GASPRICE ADDMOD 0xE3 PUSH12 0x69932C9BFB1FDBDF75901529 JUMPI 0x28 0xD DUP11 DIV PUSH32 0x9C033B3026ACD09E8264736F6C634300080D0033000000000000000000000000 "
        },
        "gasEstimates": {
          "creation": {
            "codeDepositCost": "515200",
            "executionCost": "549",
            "totalCost": "515749"
          },
          "external": {
            "addMeat(string)": "infinite",
            "buyMeat(uint256)": "infinite",
            "getButcherName()": "infinite",
            "getStoreItems()": "infinite",
            "removeMeat(uint256)": "infinite",
            "setButcherName(string)": "infinite"
          }
        },
        "methodIdentifiers": {
          "addMeat(string)": "661c5780",
          "buyMeat(uint256)": "434d1c98",
          "getButcherName()": "31f5a14a",
          "getStoreItems()": "2d9088bd",
          "removeMeat(uint256)": "084b5069",
          "setButcherName(string)": "a986d48a"
        }
      },
      "storageLayout": {
        "storage": [],
        "types": null
      },
      "userdoc": {
        "kind": "user",
        "methods": {},
        "version": 1
      }
    }
  }
}