{
  "contracts/PoC/diamonds/BigStoreDiamondInit.sol": {
    "BigStoreDiamondInit": {
      "abi": [
        {
          "inputs": [
            {
              "components": [
                {
                  "internalType": "string",
                  "name": "location",
                  "type": "string"
                },
                {
                  "internalType": "uint256",
                  "name": "creationTimestamp",
                  "type": "uint256"
                }
              ],
              "internalType": "struct BigStoreDiamondInit.Args",
              "name": "args",
              "type": "tuple"
            }
          ],
          "name": "init",
          "outputs": [],
          "stateMutability": "nonpayable",
          "type": "function"
        }
      ],
      "devdoc": {
        "kind": "dev",
        "methods": {},
        "version": 1
      },
      "evm": {
        "bytecode": {
          "linkReferences": {},
          "object": "608060405234801561001057600080fd5b506103c6806100206000396000f3fe608060405234801561001057600080fd5b506004361061002b5760003560e01c806389d51a4e14610030575b600080fd5b61004361003e36600461028f565b610045565b005b7fc8fcad8db84d3cc18b4c41d551ea0ee66dd599cde068d998e57d5e09332c131e60209081527f673a26ab9c976db950bbe987aa80c5e387f329563bb0afe093ddccc970489e318054600160ff1991821681179092557f9bed265332efc30fa7643cc339edc91cb284a0f6566818a5788922af58c86b5080548216831790557f795db15802e151b19272d3e7b72ebd9d0cedc282cc23a6e937c8c3c90d9e213780548216831790556307f5828d60e41b6000527fe616bea4664e595328e525b24998219caecea2090de91847473acfb3efaa8aad80549091169091179055815180517fc8fcad8db84d3cc18b4c41d551ea0ee66dd599cde068d998e57d5e09332c131c92610177927fc8fcad8db84d3cc18b4c41d551ea0ee66dd599cde068d998e57d5e09332c132092910190610186565b50602090910151600590910155565b82805461019290610356565b90600052602060002090601f0160209004810192826101b457600085556101fa565b82601f106101cd57805160ff19168380011785556101fa565b828001600101855582156101fa579182015b828111156101fa5782518255916020019190600101906101df565b5061020692915061020a565b5090565b5b80821115610206576000815560010161020b565b634e487b7160e01b600052604160045260246000fd5b6040805190810167ffffffffffffffff811182821017156102585761025861021f565b60405290565b604051601f8201601f1916810167ffffffffffffffff811182821017156102875761028761021f565b604052919050565b600060208083850312156102a257600080fd5b823567ffffffffffffffff808211156102ba57600080fd5b90840190604082870312156102ce57600080fd5b6102d6610235565b8235828111156102e557600080fd5b8301601f810188136102f657600080fd5b8035838111156103085761030861021f565b61031a601f8201601f1916870161025e565b9350808452888682840101111561033057600080fd5b808683018786013760009084018601525090815290820135918101919091529392505050565b600181811c9082168061036a57607f821691505b60208210810361038a57634e487b7160e01b600052602260045260246000fd5b5091905056fea26469706673582212202540d1501d2add098367614d002ec9ed6dfad7ea775a265135c36cc03fbeb93164736f6c634300080d0033",
          "opcodes": "PUSH1 0x80 PUSH1 0x40 MSTORE CALLVALUE DUP1 ISZERO PUSH2 0x10 JUMPI PUSH1 0x0 DUP1 REVERT JUMPDEST POP PUSH2 0x3C6 DUP1 PUSH2 0x20 PUSH1 0x0 CODECOPY PUSH1 0x0 RETURN INVALID PUSH1 0x80 PUSH1 0x40 MSTORE CALLVALUE DUP1 ISZERO PUSH2 0x10 JUMPI PUSH1 0x0 DUP1 REVERT JUMPDEST POP PUSH1 0x4 CALLDATASIZE LT PUSH2 0x2B JUMPI PUSH1 0x0 CALLDATALOAD PUSH1 0xE0 SHR DUP1 PUSH4 0x89D51A4E EQ PUSH2 0x30 JUMPI JUMPDEST PUSH1 0x0 DUP1 REVERT JUMPDEST PUSH2 0x43 PUSH2 0x3E CALLDATASIZE PUSH1 0x4 PUSH2 0x28F JUMP JUMPDEST PUSH2 0x45 JUMP JUMPDEST STOP JUMPDEST PUSH32 0xC8FCAD8DB84D3CC18B4C41D551EA0EE66DD599CDE068D998E57D5E09332C131E PUSH1 0x20 SWAP1 DUP2 MSTORE PUSH32 0x673A26AB9C976DB950BBE987AA80C5E387F329563BB0AFE093DDCCC970489E31 DUP1 SLOAD PUSH1 0x1 PUSH1 0xFF NOT SWAP2 DUP3 AND DUP2 OR SWAP1 SWAP3 SSTORE PUSH32 0x9BED265332EFC30FA7643CC339EDC91CB284A0F6566818A5788922AF58C86B50 DUP1 SLOAD DUP3 AND DUP4 OR SWAP1 SSTORE PUSH32 0x795DB15802E151B19272D3E7B72EBD9D0CEDC282CC23A6E937C8C3C90D9E2137 DUP1 SLOAD DUP3 AND DUP4 OR SWAP1 SSTORE PUSH4 0x7F5828D PUSH1 0xE4 SHL PUSH1 0x0 MSTORE PUSH32 0xE616BEA4664E595328E525B24998219CAECEA2090DE91847473ACFB3EFAA8AAD DUP1 SLOAD SWAP1 SWAP2 AND SWAP1 SWAP2 OR SWAP1 SSTORE DUP2 MLOAD DUP1 MLOAD PUSH32 0xC8FCAD8DB84D3CC18B4C41D551EA0EE66DD599CDE068D998E57D5E09332C131C SWAP3 PUSH2 0x177 SWAP3 PUSH32 0xC8FCAD8DB84D3CC18B4C41D551EA0EE66DD599CDE068D998E57D5E09332C1320 SWAP3 SWAP2 ADD SWAP1 PUSH2 0x186 JUMP JUMPDEST POP PUSH1 0x20 SWAP1 SWAP2 ADD MLOAD PUSH1 0x5 SWAP1 SWAP2 ADD SSTORE JUMP JUMPDEST DUP3 DUP1 SLOAD PUSH2 0x192 SWAP1 PUSH2 0x356 JUMP JUMPDEST SWAP1 PUSH1 0x0 MSTORE PUSH1 0x20 PUSH1 0x0 KECCAK256 SWAP1 PUSH1 0x1F ADD PUSH1 0x20 SWAP1 DIV DUP2 ADD SWAP3 DUP3 PUSH2 0x1B4 JUMPI PUSH1 0x0 DUP6 SSTORE PUSH2 0x1FA JUMP JUMPDEST DUP3 PUSH1 0x1F LT PUSH2 0x1CD JUMPI DUP1 MLOAD PUSH1 0xFF NOT AND DUP4 DUP1 ADD OR DUP6 SSTORE PUSH2 0x1FA JUMP JUMPDEST DUP3 DUP1 ADD PUSH1 0x1 ADD DUP6 SSTORE DUP3 ISZERO PUSH2 0x1FA JUMPI SWAP2 DUP3 ADD JUMPDEST DUP3 DUP2 GT ISZERO PUSH2 0x1FA JUMPI DUP3 MLOAD DUP3 SSTORE SWAP2 PUSH1 0x20 ADD SWAP2 SWAP1 PUSH1 0x1 ADD SWAP1 PUSH2 0x1DF JUMP JUMPDEST POP PUSH2 0x206 SWAP3 SWAP2 POP PUSH2 0x20A JUMP JUMPDEST POP SWAP1 JUMP JUMPDEST JUMPDEST DUP1 DUP3 GT ISZERO PUSH2 0x206 JUMPI PUSH1 0x0 DUP2 SSTORE PUSH1 0x1 ADD PUSH2 0x20B JUMP JUMPDEST PUSH4 0x4E487B71 PUSH1 0xE0 SHL PUSH1 0x0 MSTORE PUSH1 0x41 PUSH1 0x4 MSTORE PUSH1 0x24 PUSH1 0x0 REVERT JUMPDEST PUSH1 0x40 DUP1 MLOAD SWAP1 DUP2 ADD PUSH8 0xFFFFFFFFFFFFFFFF DUP2 GT DUP3 DUP3 LT OR ISZERO PUSH2 0x258 JUMPI PUSH2 0x258 PUSH2 0x21F JUMP JUMPDEST PUSH1 0x40 MSTORE SWAP1 JUMP JUMPDEST PUSH1 0x40 MLOAD PUSH1 0x1F DUP3 ADD PUSH1 0x1F NOT AND DUP2 ADD PUSH8 0xFFFFFFFFFFFFFFFF DUP2 GT DUP3 DUP3 LT OR ISZERO PUSH2 0x287 JUMPI PUSH2 0x287 PUSH2 0x21F JUMP JUMPDEST PUSH1 0x40 MSTORE SWAP2 SWAP1 POP JUMP JUMPDEST PUSH1 0x0 PUSH1 0x20 DUP1 DUP4 DUP6 SUB SLT ISZERO PUSH2 0x2A2 JUMPI PUSH1 0x0 DUP1 REVERT JUMPDEST DUP3 CALLDATALOAD PUSH8 0xFFFFFFFFFFFFFFFF DUP1 DUP3 GT ISZERO PUSH2 0x2BA JUMPI PUSH1 0x0 DUP1 REVERT JUMPDEST SWAP1 DUP5 ADD SWAP1 PUSH1 0x40 DUP3 DUP8 SUB SLT ISZERO PUSH2 0x2CE JUMPI PUSH1 0x0 DUP1 REVERT JUMPDEST PUSH2 0x2D6 PUSH2 0x235 JUMP JUMPDEST DUP3 CALLDATALOAD DUP3 DUP2 GT ISZERO PUSH2 0x2E5 JUMPI PUSH1 0x0 DUP1 REVERT JUMPDEST DUP4 ADD PUSH1 0x1F DUP2 ADD DUP9 SGT PUSH2 0x2F6 JUMPI PUSH1 0x0 DUP1 REVERT JUMPDEST DUP1 CALLDATALOAD DUP4 DUP2 GT ISZERO PUSH2 0x308 JUMPI PUSH2 0x308 PUSH2 0x21F JUMP JUMPDEST PUSH2 0x31A PUSH1 0x1F DUP3 ADD PUSH1 0x1F NOT AND DUP8 ADD PUSH2 0x25E JUMP JUMPDEST SWAP4 POP DUP1 DUP5 MSTORE DUP9 DUP7 DUP3 DUP5 ADD ADD GT ISZERO PUSH2 0x330 JUMPI PUSH1 0x0 DUP1 REVERT JUMPDEST DUP1 DUP7 DUP4 ADD DUP8 DUP7 ADD CALLDATACOPY PUSH1 0x0 SWAP1 DUP5 ADD DUP7 ADD MSTORE POP SWAP1 DUP2 MSTORE SWAP1 DUP3 ADD CALLDATALOAD SWAP2 DUP2 ADD SWAP2 SWAP1 SWAP2 MSTORE SWAP4 SWAP3 POP POP POP JUMP JUMPDEST PUSH1 0x1 DUP2 DUP2 SHR SWAP1 DUP3 AND DUP1 PUSH2 0x36A JUMPI PUSH1 0x7F DUP3 AND SWAP2 POP JUMPDEST PUSH1 0x20 DUP3 LT DUP2 SUB PUSH2 0x38A JUMPI PUSH4 0x4E487B71 PUSH1 0xE0 SHL PUSH1 0x0 MSTORE PUSH1 0x22 PUSH1 0x4 MSTORE PUSH1 0x24 PUSH1 0x0 REVERT JUMPDEST POP SWAP2 SWAP1 POP JUMP INVALID LOG2 PUSH5 0x6970667358 0x22 SLT KECCAK256 0x25 BLOCKHASH 0xD1 POP SAR 0x2A 0xDD MULMOD DUP4 PUSH8 0x614D002EC9ED6DFA 0xD7 0xEA PUSH24 0x5A265135C36CC03FBEB93164736F6C634300080D00330000 "
        },
        "gasEstimates": {
          "creation": {
            "codeDepositCost": "193200",
            "executionCost": "238",
            "totalCost": "193438"
          },
          "external": {
            "init((string,uint256))": "infinite"
          }
        },
        "methodIdentifiers": {
          "init((string,uint256))": "89d51a4e"
        }
      },
      "storageLayout": {
        "storage": [],
        "types": null
      },
      "userdoc": {
        "kind": "user",
        "methods": {},
        "version": 1
      }
    }
  }
}