{
  "contracts/facets/Test2Facet.sol": {
    "Test2Facet": {
      "abi": [
        {
          "inputs": [],
          "name": "test2Func1",
          "outputs": [],
          "stateMutability": "nonpayable",
          "type": "function"
        },
        {
          "inputs": [],
          "name": "test2Func10",
          "outputs": [],
          "stateMutability": "nonpayable",
          "type": "function"
        },
        {
          "inputs": [],
          "name": "test2Func11",
          "outputs": [],
          "stateMutability": "nonpayable",
          "type": "function"
        },
        {
          "inputs": [],
          "name": "test2Func12",
          "outputs": [],
          "stateMutability": "nonpayable",
          "type": "function"
        },
        {
          "inputs": [],
          "name": "test2Func13",
          "outputs": [],
          "stateMutability": "nonpayable",
          "type": "function"
        },
        {
          "inputs": [],
          "name": "test2Func14",
          "outputs": [],
          "stateMutability": "nonpayable",
          "type": "function"
        },
        {
          "inputs": [],
          "name": "test2Func15",
          "outputs": [],
          "stateMutability": "nonpayable",
          "type": "function"
        },
        {
          "inputs": [],
          "name": "test2Func16",
          "outputs": [],
          "stateMutability": "nonpayable",
          "type": "function"
        },
        {
          "inputs": [],
          "name": "test2Func17",
          "outputs": [],
          "stateMutability": "nonpayable",
          "type": "function"
        },
        {
          "inputs": [],
          "name": "test2Func18",
          "outputs": [],
          "stateMutability": "nonpayable",
          "type": "function"
        },
        {
          "inputs": [],
          "name": "test2Func19",
          "outputs": [],
          "stateMutability": "nonpayable",
          "type": "function"
        },
        {
          "inputs": [],
          "name": "test2Func2",
          "outputs": [],
          "stateMutability": "nonpayable",
          "type": "function"
        },
        {
          "inputs": [],
          "name": "test2Func20",
          "outputs": [],
          "stateMutability": "nonpayable",
          "type": "function"
        },
        {
          "inputs": [],
          "name": "test2Func3",
          "outputs": [],
          "stateMutability": "nonpayable",
          "type": "function"
        },
        {
          "inputs": [],
          "name": "test2Func4",
          "outputs": [],
          "stateMutability": "nonpayable",
          "type": "function"
        },
        {
          "inputs": [],
          "name": "test2Func5",
          "outputs": [],
          "stateMutability": "nonpayable",
          "type": "function"
        },
        {
          "inputs": [],
          "name": "test2Func6",
          "outputs": [],
          "stateMutability": "nonpayable",
          "type": "function"
        },
        {
          "inputs": [],
          "name": "test2Func7",
          "outputs": [],
          "stateMutability": "nonpayable",
          "type": "function"
        },
        {
          "inputs": [],
          "name": "test2Func8",
          "outputs": [],
          "stateMutability": "nonpayable",
          "type": "function"
        },
        {
          "inputs": [],
          "name": "test2Func9",
          "outputs": [],
          "stateMutability": "nonpayable",
          "type": "function"
        }
      ],
      "devdoc": {
        "kind": "dev",
        "methods": {},
        "version": 1
      },
      "evm": {
        "bytecode": {
          "linkReferences": {},
          "object": "608060405234801561001057600080fd5b50610169806100206000396000f3fe608060405234801561001057600080fd5b506004361061012c5760003560e01c80638ee8be30116100ad578063d2f0c73e11610071578063d2f0c73e14610131578063e5f687b214610131578063e7de23a414610131578063ea36b55814610131578063ef3f4d781461013157600080fd5b80638ee8be301461013157806391d0396b14610131578063c670641d14610131578063ca5fa5c014610131578063caae8f231461013157600080fd5b80632e463958116100f45780632e463958146101315780635fd6312b146101315780636dc16b0114610131578063792a8e2e14610131578063884280a61461013157600080fd5b806303feeeae146101315780630c103a93146101315780630e4cd7fc14610131578063148843091461013157806317fd06e714610131575b600080fd5b00fea264697066735822122019c62e3612f83ba9e8fea3162c4533cb30e19ec1c1de76269b3efe2e8e04ac9964736f6c634300080d0033",
          "opcodes": "PUSH1 0x80 PUSH1 0x40 MSTORE CALLVALUE DUP1 ISZERO PUSH2 0x10 JUMPI PUSH1 0x0 DUP1 REVERT JUMPDEST POP PUSH2 0x169 DUP1 PUSH2 0x20 PUSH1 0x0 CODECOPY PUSH1 0x0 RETURN INVALID PUSH1 0x80 PUSH1 0x40 MSTORE CALLVALUE DUP1 ISZERO PUSH2 0x10 JUMPI PUSH1 0x0 DUP1 REVERT JUMPDEST POP PUSH1 0x4 CALLDATASIZE LT PUSH2 0x12C JUMPI PUSH1 0x0 CALLDATALOAD PUSH1 0xE0 SHR DUP1 PUSH4 0x8EE8BE30 GT PUSH2 0xAD JUMPI DUP1 PUSH4 0xD2F0C73E GT PUSH2 0x71 JUMPI DUP1 PUSH4 0xD2F0C73E EQ PUSH2 0x131 JUMPI DUP1 PUSH4 0xE5F687B2 EQ PUSH2 0x131 JUMPI DUP1 PUSH4 0xE7DE23A4 EQ PUSH2 0x131 JUMPI DUP1 PUSH4 0xEA36B558 EQ PUSH2 0x131 JUMPI DUP1 PUSH4 0xEF3F4D78 EQ PUSH2 0x131 JUMPI PUSH1 0x0 DUP1 REVERT JUMPDEST DUP1 PUSH4 0x8EE8BE30 EQ PUSH2 0x131 JUMPI DUP1 PUSH4 0x91D0396B EQ PUSH2 0x131 JUMPI DUP1 PUSH4 0xC670641D EQ PUSH2 0x131 JUMPI DUP1 PUSH4 0xCA5FA5C0 EQ PUSH2 0x131 JUMPI DUP1 PUSH4 0xCAAE8F23 EQ PUSH2 0x131 JUMPI PUSH1 0x0 DUP1 REVERT JUMPDEST DUP1 PUSH4 0x2E463958 GT PUSH2 0xF4 JUMPI DUP1 PUSH4 0x2E463958 EQ PUSH2 0x131 JUMPI DUP1 PUSH4 0x5FD6312B EQ PUSH2 0x131 JUMPI DUP1 PUSH4 0x6DC16B01 EQ PUSH2 0x131 JUMPI DUP1 PUSH4 0x792A8E2E EQ PUSH2 0x131 JUMPI DUP1 PUSH4 0x884280A6 EQ PUSH2 0x131 JUMPI PUSH1 0x0 DUP1 REVERT JUMPDEST DUP1 PUSH4 0x3FEEEAE EQ PUSH2 0x131 JUMPI DUP1 PUSH4 0xC103A93 EQ PUSH2 0x131 JUMPI DUP1 PUSH4 0xE4CD7FC EQ PUSH2 0x131 JUMPI DUP1 PUSH4 0x14884309 EQ PUSH2 0x131 JUMPI DUP1 PUSH4 0x17FD06E7 EQ PUSH2 0x131 JUMPI JUMPDEST PUSH1 0x0 DUP1 REVERT JUMPDEST STOP INVALID LOG2 PUSH5 0x6970667358 0x22 SLT KECCAK256 NOT 0xC6 0x2E CALLDATASIZE SLT 0xF8 EXTCODESIZE 0xA9 0xE8 INVALID LOG3 AND 0x2C GASLIMIT CALLER 0xCB ADDRESS 0xE1 SWAP15 0xC1 0xC1 0xDE PUSH23 0x269B3EFE2E8E04AC9964736F6C634300080D0033000000 "
        },
        "gasEstimates": {
          "creation": {
            "codeDepositCost": "72200",
            "executionCost": "123",
            "totalCost": "72323"
          },
          "external": {
            "test2Func1()": "208",
            "test2Func10()": "143",
            "test2Func11()": "231",
            "test2Func12()": "209",
            "test2Func13()": "187",
            "test2Func14()": "165",
            "test2Func15()": "144",
            "test2Func16()": "143",
            "test2Func17()": "210",
            "test2Func18()": "166",
            "test2Func19()": "165",
            "test2Func2()": "186",
            "test2Func20()": "209",
            "test2Func3()": "188",
            "test2Func4()": "187",
            "test2Func5()": "142",
            "test2Func6()": "232",
            "test2Func7()": "230",
            "test2Func8()": "164",
            "test2Func9()": "231"
          }
        },
        "methodIdentifiers": {
          "test2Func1()": "ea36b558",
          "test2Func10()": "8ee8be30",
          "test2Func11()": "884280a6",
          "test2Func12()": "ca5fa5c0",
          "test2Func13()": "6dc16b01",
          "test2Func14()": "91d0396b",
          "test2Func15()": "03feeeae",
          "test2Func16()": "2e463958",
          "test2Func17()": "14884309",
          "test2Func18()": "0c103a93",
          "test2Func19()": "5fd6312b",
          "test2Func2()": "e7de23a4",
          "test2Func20()": "792a8e2e",
          "test2Func3()": "0e4cd7fc",
          "test2Func4()": "c670641d",
          "test2Func5()": "d2f0c73e",
          "test2Func6()": "17fd06e7",
          "test2Func7()": "ef3f4d78",
          "test2Func8()": "e5f687b2",
          "test2Func9()": "caae8f23"
        }
      },
      "storageLayout": {
        "storage": [],
        "types": null
      },
      "userdoc": {
        "kind": "user",
        "methods": {},
        "version": 1
      }
    }
  }
}