{
  "_format": "hh-sol-artifact-1",
  "contractName": "MeatStoreFacet",
  "sourceName": "contracts/PoC/facets/MeatStoreFacet.sol",
  "abi": [
    {
      "inputs": [],
      "name": "ItemNotAvailable",
      "type": "error"
    },
    {
      "inputs": [],
      "name": "ItemNotSoldAtStore",
      "type": "error"
    },
    {
      "inputs": [
        {
          "internalType": "address",
          "name": "_user",
          "type": "address"
        },
        {
          "internalType": "address",
          "name": "_contractOwner",
          "type": "address"
        }
      ],
      "name": "NotContractOwner",
      "type": "error"
    },
    {
      "anonymous": false,
      "inputs": [
        {
          "indexed": false,
          "internalType": "uint256",
          "name": "idx",
          "type": "uint256"
        },
        {
          "indexed": false,
          "internalType": "string",
          "name": "name",
          "type": "string"
        }
      ],
      "name": "meatAdded",
      "type": "event"
    },
    {
      "anonymous": false,
      "inputs": [
        {
          "indexed": false,
          "internalType": "uint256",
          "name": "idx",
          "type": "uint256"
        }
      ],
      "name": "meatRemoved",
      "type": "event"
    },
    {
      "inputs": [
        {
          "internalType": "string",
          "name": "_newMeat",
          "type": "string"
        }
      ],
      "name": "addMeat",
      "outputs": [],
      "stateMutability": "nonpayable",
      "type": "function"
    },
    {
      "inputs": [
        {
          "internalType": "uint256",
          "name": "_idx",
          "type": "uint256"
        }
      ],
      "name": "buyMeat",
      "outputs": [],
      "stateMutability": "nonpayable",
      "type": "function"
    },
    {
      "inputs": [],
      "name": "getButcherName",
      "outputs": [
        {
          "internalType": "string",
          "name": "_butcherName",
          "type": "string"
        }
      ],
      "stateMutability": "view",
      "type": "function"
    },
    {
      "inputs": [],
      "name": "getStoreItems",
      "outputs": [
        {
          "internalType": "string[]",
          "name": "itemList",
          "type": "string[]"
        }
      ],
      "stateMutability": "view",
      "type": "function"
    },
    {
      "inputs": [
        {
          "internalType": "uint256",
          "name": "_idx",
          "type": "uint256"
        }
      ],
      "name": "removeMeat",
      "outputs": [],
      "stateMutability": "nonpayable",
      "type": "function"
    },
    {
      "inputs": [
        {
          "internalType": "string",
          "name": "_newButcherName",
          "type": "string"
        }
      ],
      "name": "setButcherName",
      "outputs": [],
      "stateMutability": "nonpayable",
      "type": "function"
    }
  ],
  "bytecode": "0x608060405234801561001057600080fd5b50610a10806100206000396000f3fe608060405234801561001057600080fd5b50600436106100625760003560e01c8063084b5069146100675780632d9088bd1461007c57806331f5a14a1461009a578063434d1c98146100af578063661c5780146100c2578063a986d48a146100d5575b600080fd5b61007a61007536600461079a565b6100e8565b005b61008461016d565b6040516100919190610800565b60405180910390f35b6100a261017d565b6040516100919190610862565b61007a6100bd36600461079a565b610187565b61007a6100d0366004610892565b610194565b61007a6100e3366004610892565b6101a6565b6100f06101b7565b60008181527f3e1203f9e3017e885f293b2817c8cf13c3f1a69d3fb206a868b5d52ad69ac9406020908152604091829020805460ff1916905590518281526000805160206109bb833981519152917f95a7d0589327ee45472a652c32c9315e86ec14ec4c2c97003af8a0eb6b0fa074910160405180910390a15050565b606061017830610241565b905090565b60606101786103e2565b6101918130610498565b50565b61019c6101b7565b610191813061054f565b6101ae6101b7565b6101918161061d565b7fc8fcad8db84d3cc18b4c41d551ea0ee66dd599cde068d998e57d5e09332c131c600301546001600160a01b0316331461023f577fc8fcad8db84d3cc18b4c41d551ea0ee66dd599cde068d998e57d5e09332c131f5460408051600162bed83560e01b031981523360048201526001600160a01b039092166024830152519081900360440190fd5b565b6000805160206109bb8339815191528054606091908067ffffffffffffffff81111561026f5761026f61087c565b6040519080825280602002602001820160405280156102a257816020015b606081526020019060019003908161028d5790505b509250600060015b8281116103d9576001600160a01b03861615806102fd5750600081815260028501602052604090205460ff1680156102fd575060008181526003850160205260409020546001600160a01b038781169116145b156103c75760008181526001850160205260409020805461031d90610943565b80601f016020809104026020016040519081016040528092919081815260200182805461034990610943565b80156103965780601f1061036b57610100808354040283529160200191610396565b820191906000526020600020905b81548152906001019060200180831161037957829003601f168201915b50505050508583815181106103ad576103ad61097d565b602002602001018190525081806103c390610993565b9250505b806103d181610993565b9150506102aa565b50505050919050565b7fb52d88f0c7e24f6a206036c0ee87f7de87b496cd31bef73246b85956058c7299805460609190819061041490610943565b80601f016020809104026020016040519081016040528092919081815260200182805461044090610943565b801561048d5780601f106104625761010080835404028352916020019161048d565b820191906000526020600020905b81548152906001019060200180831161047057829003601f168201915b505050505091505090565b6104a28183610656565b6104ab826106b3565b60008281527f3e1203f9e3017e885f293b2817c8cf13c3f1a69d3fb206a868b5d52ad69ac9426020526040812080546000805160206109bb833981519152929091906104f683610993565b90915550503360009081526005820160209081526040808320868452909152812080549161052383610993565b9091555050336000908152600682016020526040812080549161054583610993565b9190505550505050565b6000805160206109bb833981519152805460010180825560009081527f3e1203f9e3017e885f293b2817c8cf13c3f1a69d3fb206a868b5d52ad69ac93f6020908152604090912084516105a492860190610701565b50816003820160006105b4845490565b815260200190815260200160002060006101000a8154816001600160a01b0302191690836001600160a01b0316021790555060018160020160006105f9846000015490565b81526020810191909152604001600020805460ff1916911515919091179055505050565b80517fb52d88f0c7e24f6a206036c0ee87f7de87b496cd31bef73246b85956058c7299906106519082906020850190610701565b505050565b60008181527f3e1203f9e3017e885f293b2817c8cf13c3f1a69d3fb206a868b5d52ad69ac94160205260409020546001600160a01b038381169116146106af57604051630306e2d560e31b815260040160405180910390fd5b5050565b60008181527f3e1203f9e3017e885f293b2817c8cf13c3f1a69d3fb206a868b5d52ad69ac940602052604090205460ff1661019157604051633c1c65a160e21b815260040160405180910390fd5b82805461070d90610943565b90600052602060002090601f01602090048101928261072f5760008555610775565b82601f1061074857805160ff1916838001178555610775565b82800160010185558215610775579182015b8281111561077557825182559160200191906001019061075a565b50610781929150610785565b5090565b5b808211156107815760008155600101610786565b6000602082840312156107ac57600080fd5b5035919050565b6000815180845260005b818110156107d9576020818501810151868301820152016107bd565b818111156107eb576000602083870101525b50601f01601f19169290920160200192915050565b6000602080830181845280855180835260408601915060408160051b870101925083870160005b8281101561085557603f198886030184526108438583516107b3565b94509285019290850190600101610827565b5092979650505050505050565b60208152600061087560208301846107b3565b9392505050565b634e487b7160e01b600052604160045260246000fd5b6000602082840312156108a457600080fd5b813567ffffffffffffffff808211156108bc57600080fd5b818401915084601f8301126108d057600080fd5b8135818111156108e2576108e261087c565b604051601f8201601f19908116603f0116810190838211818310171561090a5761090a61087c565b8160405282815287602084870101111561092357600080fd5b826020860160208301376000928101602001929092525095945050505050565b600181811c9082168061095757607f821691505b60208210810361097757634e487b7160e01b600052602260045260246000fd5b50919050565b634e487b7160e01b600052603260045260246000fd5b6000600182016109b357634e487b7160e01b600052601160045260246000fd5b506001019056fe3e1203f9e3017e885f293b2817c8cf13c3f1a69d3fb206a868b5d52ad69ac93ea26469706673582212203c3a08e36b69932c9bfb1fdbdf7590152957280d8a047f9c033b3026acd09e8264736f6c634300080d0033",
  "linkReferences": {},
  "deployedLinkReferences": {}
}