{
  "_format": "hh-sol-artifact-1",
  "contractName": "BigStoreDiamondInit",
  "sourceName": "contracts/PoC/diamonds/BigStoreDiamondInit.sol",
  "abi": [
    {
      "inputs": [
        {
          "components": [
            {
              "internalType": "string",
              "name": "location",
              "type": "string"
            },
            {
              "internalType": "uint256",
              "name": "creationTimestamp",
              "type": "uint256"
            }
          ],
          "internalType": "struct BigStoreDiamondInit.Args",
          "name": "args",
          "type": "tuple"
        }
      ],
      "name": "init",
      "outputs": [],
      "stateMutability": "nonpayable",
      "type": "function"
    }
  ],
  "bytecode": "0x608060405234801561001057600080fd5b506103c6806100206000396000f3fe608060405234801561001057600080fd5b506004361061002b5760003560e01c806389d51a4e14610030575b600080fd5b61004361003e36600461028f565b610045565b005b7fc8fcad8db84d3cc18b4c41d551ea0ee66dd599cde068d998e57d5e09332c131e60209081527f673a26ab9c976db950bbe987aa80c5e387f329563bb0afe093ddccc970489e318054600160ff1991821681179092557f9bed265332efc30fa7643cc339edc91cb284a0f6566818a5788922af58c86b5080548216831790557f795db15802e151b19272d3e7b72ebd9d0cedc282cc23a6e937c8c3c90d9e213780548216831790556307f5828d60e41b6000527fe616bea4664e595328e525b24998219caecea2090de91847473acfb3efaa8aad80549091169091179055815180517fc8fcad8db84d3cc18b4c41d551ea0ee66dd599cde068d998e57d5e09332c131c92610177927fc8fcad8db84d3cc18b4c41d551ea0ee66dd599cde068d998e57d5e09332c132092910190610186565b50602090910151600590910155565b82805461019290610356565b90600052602060002090601f0160209004810192826101b457600085556101fa565b82601f106101cd57805160ff19168380011785556101fa565b828001600101855582156101fa579182015b828111156101fa5782518255916020019190600101906101df565b5061020692915061020a565b5090565b5b80821115610206576000815560010161020b565b634e487b7160e01b600052604160045260246000fd5b6040805190810167ffffffffffffffff811182821017156102585761025861021f565b60405290565b604051601f8201601f1916810167ffffffffffffffff811182821017156102875761028761021f565b604052919050565b600060208083850312156102a257600080fd5b823567ffffffffffffffff808211156102ba57600080fd5b90840190604082870312156102ce57600080fd5b6102d6610235565b8235828111156102e557600080fd5b8301601f810188136102f657600080fd5b8035838111156103085761030861021f565b61031a601f8201601f1916870161025e565b9350808452888682840101111561033057600080fd5b808683018786013760009084018601525090815290820135918101919091529392505050565b600181811c9082168061036a57607f821691505b60208210810361038a57634e487b7160e01b600052602260045260246000fd5b5091905056fea26469706673582212202540d1501d2add098367614d002ec9ed6dfad7ea775a265135c36cc03fbeb93164736f6c634300080d0033",
  "linkReferences": {},
  "deployedLinkReferences": {}
}