{
  "_format": "hh-sol-artifact-1",
  "contractName": "DiamondMultiInit",
  "sourceName": "contracts/upgradeInitializers/DiamondMultiInit.sol",
  "abi": [
    {
      "inputs": [
        {
          "internalType": "uint256",
          "name": "_addressesLength",
          "type": "uint256"
        },
        {
          "internalType": "uint256",
          "name": "_calldataLength",
          "type": "uint256"
        }
      ],
      "name": "AddressAndCalldataLengthDoNotMatch",
      "type": "error"
    },
    {
      "inputs": [
        {
          "internalType": "address",
          "name": "_initializationContractAddress",
          "type": "address"
        },
        {
          "internalType": "bytes",
          "name": "_calldata",
          "type": "bytes"
        }
      ],
      "name": "InitializationFunctionReverted",
      "type": "error"
    },
    {
      "inputs": [
        {
          "internalType": "address",
          "name": "_contractAddress",
          "type": "address"
        },
        {
          "internalType": "string",
          "name": "_message",
          "type": "string"
        }
      ],
      "name": "NoBytecodeAtAddress",
      "type": "error"
    },
    {
      "inputs": [
        {
          "internalType": "address[]",
          "name": "_addresses",
          "type": "address[]"
        },
        {
          "internalType": "bytes[]",
          "name": "_calldata",
          "type": "bytes[]"
        }
      ],
      "name": "multiInit",
      "outputs": [],
      "stateMutability": "nonpayable",
      "type": "function"
    }
  ],
  "bytecode": "0x608060405234801561001057600080fd5b50610483806100206000396000f3fe608060405234801561001057600080fd5b506004361061002b5760003560e01c80636e02fa3c14610030575b600080fd5b61004361003e366004610265565b610045565b005b828114610074576040516339a070b360e11b815260048101849052602481018290526044015b60405180910390fd5b60005b8381101561011957610107858583818110610094576100946102d1565b90506020020160208101906100a991906102e7565b8484848181106100bb576100bb6102d1565b90506020028101906100cd9190610317565b8080601f01602080910402602001604051908101604052809392919081815260200183838082843760009201919091525061012092505050565b806101118161035e565b915050610077565b5050505050565b6001600160a01b038216610132575050565b61015482604051806060016040528060288152602001610426602891396101ec565b600080836001600160a01b03168360405161016f91906103b1565b600060405180830381855af49150503d80600081146101aa576040519150601f19603f3d011682016040523d82523d6000602084013e6101af565b606091505b5091509150816101e6578051156101c95780518082602001fd5b838360405163192105d760e01b815260040161006b9291906103f9565b50505050565b813b600081900361021457828260405163919834b960e01b815260040161006b9291906103f9565b505050565b60008083601f84011261022b57600080fd5b50813567ffffffffffffffff81111561024357600080fd5b6020830191508360208260051b850101111561025e57600080fd5b9250929050565b6000806000806040858703121561027b57600080fd5b843567ffffffffffffffff8082111561029357600080fd5b61029f88838901610219565b909650945060208701359150808211156102b857600080fd5b506102c587828801610219565b95989497509550505050565b634e487b7160e01b600052603260045260246000fd5b6000602082840312156102f957600080fd5b81356001600160a01b038116811461031057600080fd5b9392505050565b6000808335601e1984360301811261032e57600080fd5b83018035915067ffffffffffffffff82111561034957600080fd5b60200191503681900382131561025e57600080fd5b60006001820161037e57634e487b7160e01b600052601160045260246000fd5b5060010190565b60005b838110156103a0578181015183820152602001610388565b838111156101e65750506000910152565b600082516103c3818460208701610385565b9190910192915050565b600081518084526103e5816020860160208601610385565b601f01601f19169290920160200192915050565b6001600160a01b038316815260406020820181905260009061041d908301846103cd565b94935050505056fe4c69624469616d6f6e644375743a205f696e6974206164647265737320686173206e6f20636f6465a2646970667358221220f746bfb04721712c592e4a27d78d74a77bf031a469cde60b92be0deabea67c4964736f6c634300080d0033",
  "linkReferences": {},
  "deployedLinkReferences": {}
}